:100000000C949F020C94DD130C94B6130C940816F8
:100010000C9408160C9408160C948B180C94C702B8
:100020000C94C7020C94C7020C94C7020C94C7022C
:100030000C94C7020C94C7020C94C7020C94C7021C
:100040000C946C130C94C7020C945F120C9439122C
:100050000C94C7020C94C7020C94C7020C94C702FC
:100060000C9404140C94C7020F2129213E2159211C
:100070006421A221A921B321BE21CD21CD21CD21F1
:10008000CD21CD21CD21CD21CD21CD21CD21CD2100
:10009000CD21CD21CD21CD21CD21CD21CD21CD21F0
:1000A000CD21CD21CD21CD210F21242129213E217A
:1000B000592164217F218A219521084AD73B3BCED3
:1000C000016E84BCBFFDC12F3D6C74319ABD568357
:1000D0003DDA3D00C77F11BED9E4BB4C3E916BAA0F
:1000E000AABE000000803F00096572726F720A00AC
:1000F000097072696E74206C6F67676572000955CC
:1001000053422073776974636820746F2043414DB4
:100110004552410A00094E6F7420757365640A00E8
:100120000968756D0A000943616D657261206F662B
:1001300066000943616D657261206F6E000947506A
:1001400053206F66662E2E2E0009475053206F6E87
:100150002E2E2E000947505320766F6C7461676510
:1001600020746F6F20686967680009536571756551
:100170006E6365206D6F6465204F4646200A000956
:1001800053657175656E6365206D6F6465204F4EB4
:10019000200A00094C4F47474552204F4646200A47
:1001A0000009494D55206F66660009494D55206F7D
:1001B0006E2000565F4241543A2000094572726F2A
:1001C00072204F4C20706172616D657465727300AE
:1001D00009506172616D6574657273206C6F616442
:1001E0006564210009436865636B20706172616D0D
:1001F00065746572730046696E69736820696E691B
:100200007400475053206572726F7200475053203C
:10021000636F6E6E65637465640054657374204724
:1002200050533A0043616D65726120555342200A74
:1002300053776974636820746F2043616D657261E0
:10024000004465627567206D6F6465005365717564
:10025000656E6365206D6F6465005642555320637B
:100260006F6E6E6563746564200A576169742066F9
:100270006F7220636F6D6D616E643A203573000993
:10028000416E616C6F6720566F6C746167653A20D0
:1002900000506F74426F7420765F313000095753FD
:1002A00020696E207761746572000947505320748D
:1002B000696D65206F757400092053746174655F02
:1002C00074696D652873293A004537204465706C60
:1002D0006F79000957532064727920262074696D64
:1002E00065206F75740009575320696E207761741B
:1002F00065720009496E20616E676C6500616E670A
:100300006C6528646567293A20000920537461747C
:10031000655F74696D652873293A20000920546966
:100320006C7465643F207765743F004536205072D9
:10033000652D6465706C6F790009575320696E20D4
:10034000776174657200094750532074696D6520A8
:100350002620496E20616972000947505320666962
:10036000782065787069726564004750535F6672E3
:1003700065712873293A2000092069732077657414
:100380003F2053746174655F74696D652873293A01
:1003900020004535205265747269657665640009F0
:1003A000207761697420666F722057533D616972CE
:1003B0002C20766964656F5F74696D652873293ACE
:1003C000200045342052657472696576696E670055
:1003D00074656D705F667265712873293A20000933
:1003E000207765743F2054696C7465642028616EC1
:1003F000676C6528646567293A000A453320496EB1
:10040000207761746572202D2077616974696E6749
:100410000009566964656F20666F72205031287339
:10042000656373293A20004532204465706C6F790A
:1004300065640045312057616974205753000909EC
:10044000206F6C207265636F7264207374617465D1
:100450000000000000240027002A00000000002502
:100460000028002B000000000023002600290004C3
:10047000040404040404040202020202020303034B
:100480000303030102040810204080010204081045
:1004900020010204081020000000080002010000F2
:1004A00003040700000000000000006572726F7214
:1004B000206F70656E6C6F6E6720636D64004F4CCB
:1004C00020434D445F4D4F4445004F70656E20639F
:1004D0006F6D6D616E64206D6F64650A00097061F7
:1004E00072616D6574657273206C6F616465640020
:1004F0007265616420706F74626F7400352072657C
:100500006164696E6773202D3E204156470009479C
:1005100050532076616C69642072656164696E670E
:10052000000931737420475053000A094750532083
:1005300072656365697665640000FB2CE52C112407
:100540001FBECFEFD8E0DEBFCDBF12E0A0E0B1E02C
:10055000E0E0F6E602C005900D92AA3AB107D9F79D
:1005600025E0AAEAB2E001C01D92A53BB207E1F77F
:1005700012E0CEE9D2E004C02197FE010E9476315C
:10058000CD39D107C9F70E94D8240C94F3320C94CA
:1005900000000895FC0163870895089508950F935E
:1005A0001F93CF93DF938C01EB018EE10E94011C1E
:1005B00061E08BEA94E00E94CD0F6C2F8BEA94E00F
:1005C0000E94CD0F0E94A41BF801D287C187C038BA
:1005D000D10509F45BC0DCF4C034D105A9F1C03603
:1005E000D10509F442C0A09709F08AC080E090E8E4
:1005F000A9E8B4E48093040190930501A093060157
:10060000B093070180E090E0A5E7B4E471C0C03C7E
:10061000D10509F44CC0C03ED10509F459C0C03A17
:10062000D10509F06DC080E090E0A8ECB3E48093C0
:10063000040190930501A0930601B093070180E0A7
:1006400090E8A1EBB3E454C080E090ECA5E5B4E4FD
:100650008093040190930501A0930601B0930701D4
:1006600080E090E0AEE3B4E443C080E090E8A7E22D
:10067000B4E48093040190930501A0930601B09324
:10068000070180E090E0A6E1B4E432C080E090E0B1
:10069000A1EEB3E48093040190930501A0930601B9
:1006A000B093070180E090E0A8ECB3E421C080E0C3
:1006B00090E0A5EAB3E48093040190930501A09330
:1006C0000601B093070180E090E8A3E9B3E410C00D
:1006D00080E090E0A6E6B3E48093040190930501E6
:1006E000A0930601B093070180E090E0ADE4B3E48D
:1006F0008093000190930101A0930201B093030144
:10070000DF91CF911F910F9108950C9447320F9371
:100710001F93CF93DF938C01EB0188E2FB011192D1
:100720008A95E9F74BE050E06AEA71E0CE010E9459
:10073000E4321B8681E090E0A0E0B0E08C879D87EA
:10074000AE87BF87F80184859585A685B785888B98
:10075000998BAA8BBB8B82E090E0A0E0B0E08C8B01
:100760009D8BAE8BBF8B1CA21DA21EA21FA2188E3A
:10077000198E1A8E1B8E1C8E1D8E1E8E1F8E18A219
:1007800019A21AA21BA2DF91CF911F910F91089578
:100790005F926F927F928F929F92AF92BF92CF9211
:1007A000DF92EF92FF920F931F93CF93DF93EC01B1
:1007B0008B0184E2FB0111928A95E9F789E00E949E
:1007C000591C80FF07C18EE10E94011C83E090E06C
:1007D0000E949F1B0E94A41B81113EC066E08EE117
:1007E0000E944F1C8091A20390E02091A303821BE2
:1007F000910986309105ECF38BEA94E00E94810F19
:10080000582E8BEA94E00E94810F682E8BEA94E0C8
:100810000E94810F882E8BEA94E00E94810F982E0F
:100820008BEA94E00E94810F782E8BEA94E00E947C
:10083000810FF52CE12C970126293C832B83D72CA3
:10084000C12C9601282BC9019E838D83B82CA12C25
:10085000C501892998878F838B85882309F445C032
:100860002D813E812950384F91E02F3E3F4008F4C2
:1008700090E02B813C812950384F81E02F3E3F4052
:1008800008F480E0892B39F48F8198858950984F3E
:100890008F3E9F4050F189859A8580369105E1F021
:1008A0004CF480329105D9F080349105F1F460E682
:1008B00070E017C0803A910561F0803C910531F0FD
:1008C0008038910591F460EA70E00BC060EE70E052
:1008D00008C060EC70E005C060E870E002C060E451
:1008E00070E0CE010E94CF0269CF84E290E0A0E0E8
:1008F000B0E0F80180839183A283B3838C859D85CA
:10090000AE85BF8584839583A683B78382E090E01C
:10091000A0E0B0E080879187A287B3870E94601330
:10092000F801608B718B828B938BC0900401D09007
:100930000501E0900601F09007016B817C81072E94
:10094000000C880B990B0E946F2FA70196010E9443
:10095000C52E20E030E048EC52E40E945330F8010C
:10096000648B758B868B978B6D817E81072E000C37
:10097000880B990B0E946F2FA70196010E94C52E2C
:1009800020E030E048EC52E40E945330F801608FE0
:10099000718F828F938F6F817885072E000C880B63
:1009A000990B0E946F2F209100013091010140911D
:1009B0000201509103010E94C52E20E030E048EC76
:1009C00052E40E945330F801648F758F868F978FA1
:1009D00081E001C080E0DF91CF911F910F91FF90E6
:1009E000EF90DF90CF90BF90AF909F908F907F90CF
:1009F0006F905F9008958F929F92AF92BF92DF9217
:100A0000EF92FF920F931F93CF93DF937C018B01A3
:100A100084E6D82E64E670E080E090E00E94261321
:100A200088E40E94011C8CEA90E00E949F1B8FE0EA
:100A300090E00E949F1B0E94A41B6AE070E080E08F
:100A400090E00E942613C4E0D0E062E370E080E012
:100A500090E00E94261388E40E94011C81E590E04A
:100A60000E949F1B0E94A41B64E170E080E090E064
:100A70000E9426130E94601388E40E94011C8AEAE7
:100A800090E00E949F1B0E94A41B62E088E40E94E9
:100A90000B1C1092A3038093A2038BEA94E00E94A4
:100AA000810FF701918380838BEA94E00E94810F8C
:100AB000F8019183808364E670E080E090E00E941A
:100AC0002613219711F6F801C081D181BE010D2EA8
:100AD000000C880B990BC536D1053CF00E946F2F96
:100AE00020E030E04AE754E410C0CB30D1053CF0C0
:100AF0000E946F2F20E030E048EC52E406C00E94D4
:100B00006F2F20E030E040E251E40E94C52E4B01FF
:100B10005C01F70160817181072E000C880B990B35
:100B20000E946F2F9B01AC01C501B4010E94E22D10
:100B30004B015C01C07FDD27DC9EC001DD9E900D76
:100B40001124892F880F880BF8019083818320E07E
:100B500030E046E153E4C501B4010E944630181666
:100B60000CF458CF61EB71E08EE094E00E943712F4
:100B700023E0B501A4018EE094E00E942B116BEB01
:100B800071E08EE094E00E94CD1062E370E080E0BE
:100B900090E00E94261362E370E080E090E00E9403
:100BA0002613C501B401DF91CF911F910F91FF90E2
:100BB000EF90DF90BF90AF909F908F900895CF926D
:100BC000DF92EF92FF921F93CF93DF93CDB7DEB703
:100BD000A6970FB6F894DEBF0FBECDBF162F87368F
:100BE00009F482C134F58F3409F417C27CF48134DE
:100BF00009F484C024F48D3009F431C22AC283344C
:100C000009F4D9C1873409F4BFC123C2843509F47A
:100C10004CC144F4833509F01CC21092DD026AE62F
:100C200071E019C2813609F45BC0833609F4B9C199
:100C300010C28F3609F4D7C1D4F4893609F468C0DC
:100C40000CF4C3C18C3609F4F7C18D3609F001C22A
:100C50006EEF70E08EE094E00E94A91061E086E003
:100C60000E94BA1261E083E60E94DF05F8C187376F
:100C700009F4B6C124F5833709F426C1843709F095
:100C8000E8C183E00E949112BC018EE094E00E94D2
:100C9000281D68EE71E08EE094E00E943712BE01DC
:100CA0006F5F7F4FCE0185960E94FB046093DE024A
:100CB0007093DF028093E0029093E102D0C1883705
:100CC00009F437C18A3709F0C4C163EB71E08EE0E3
:100CD00094E00E94A9100E94221F0E94EF1C22C1D2
:100CE00061E087E00E94BA12112309F41BC16AEA8D
:100CF00071E08EE094E00E94231214C160E087E06E
:100D00000E94BA12112309F40DC161EA71E0F1CF1A
:100D100061E087E00E94BA128091D502811123C060
:100D200084E391E09093C6028093C50289E390E347
:100D3000A0E0B0E08093D1029093D202A093D302BE
:100D4000B093D4021092D0021092C9021092C8023D
:100D50001092CB021092CA021092CD021092CC02D5
:100D600081E08093D50261E081E60E94DF0581E0A9
:100D70008093D0028091C202811139C06EEB71E084
:100D80008EE094E00E9437121092A3031092A20307
:100D90001092EC0310920D040E9432158EE10E9415
:100DA000011C62E08BEA94E00E94CD0F60E08BEAC8
:100DB00094E00E94CD0F0E94A41B80E00E94591C69
:100DC000803161F460E270E085EC92E00E94CF0235
:100DD00069EC71E08EE094E00E94371268EC70E0FC
:100DE00080E090E00E94261381E08093C20268EECA
:100DF00073E080E090E00E942613BE016F5F7F4F9A
:100E000085EC92E00E94C8036FED71E08EE094E003
:100E10000E9437124D895E896F89788D22E030E01B
:100E20008EE094E00E940D1262EE71E08EE094E09C
:100E30000E943712498D5A8D6B8D7C8D22E030E0F7
:100E40008EE094E00E940D1262EE71E08EE094E07C
:100E50000E9437124D8D5E8D6F8D78A122E030E0BB
:100E60008EE094E00E940D1264EE71E08EE094E05A
:100E70000E940F1220E030E048EC52E46D897E8938
:100E80008F89988D0E9453300E94372F2091C30282
:100E90003091C4022617370719F421E02093C202CB
:100EA0007093C4026093C3023DC061E083E00E947E
:100EB000BA1283E00E949112BC018EE094E00E947D
:100EC000281D63E971E0C7C01092E20281E08093BF
:100ED000DD026FE771E08EE094E00E94A9108DE0E2
:100EE00091E00E945E1DBBC00E94221F8132934090
:100EF0003CF064E571E08EE094E00E942312AFC004
:100F000060E084E00E94BA1269E471E08EE094E04F
:100F10000E94231261E08DE00E94EA1289E495E0CC
:100F20000E94821662E370E080E090E00E94261347
:100F300096C061E087E60E94DF050E9460136B01A6
:100F40007C010E946013DC01CB018C199D09AE0964
:100F5000BF098032914AA740B10508F080C00E94C5
:100F60003B1F892B31F060E177E280E090E00E9446
:100F7000261381E090E00E94B61962E370E080E001
:100F800090E00E942613DDCF61E084E00E94BA1257
:100F900060E08DE00E94EA12112321F26DE371E01E
:100FA000A8CE60E085E00E94BA12112309F4BACFFE
:100FB00062E371E09ECE61E085E00E94BA121123E7
:100FC00009F4B0CF66E271E094CE82E00E94911203
:100FD000BC018EE094E00E94281D60E271E03BC0FD
:100FE00065E171E038C061E08AE00E94EA126AE0DF
:100FF00070E080E090E00E94261360E083E00E94B1
:10100000BA128AE295E00E948216109289030E9429
:10101000ED1881E08093E40222C061E083E00E9449
:10102000BA126AE070E080E090E00E94261360E06F
:101030008AE00E94EA1213C060EF70E08EE094E054
:101040000E9423129091E30281E089278093E302BA
:1010500006C068EE70E08EE094E00E94A91081E086
:1010600090E0A6960FB6F894DEBF0FBECDBFDF911D
:10107000CF911F91FF90EF90DF90CF9008952F9226
:101080003F924F925F926F927F928F929F92AF9218
:10109000BF92CF92DF92EF92FF921F93CF93DF9395
:1010A000CDB7DEB764970FB6F894DEBF0FBECDBFE5
:1010B0001C01162F60E081E60E94DF0562E370E00C
:1010C00080E090E00E94261383E090E090939405E6
:1010D000809393056FE070E08DE10E94C31C89341A
:1010E000910509F40EC56FE070E08EE10E94C31C0B
:1010F0008934910509F408C560E270E089E10E9435
:10110000C31C019661F06FE070E08EE10E94C31C89
:1011100021E030E0CC97D1F080E090E019C060E2AF
:1011200070E088E10E94C31C019609F44AC06FE098
:1011300070E08EE10E94C31C31E020E0CC9709F002
:1011400030E0832F922F20E030E002C082E090E078
:1011500090938205809381058230910509F470C4D3
:101160008330910509F093C42130310509F4BFC4DF
:101170008EE1809384058093830588E090E09093CE
:101180008A058093890589E090E090938805809393
:1011900087058AE090E090938E0580938D058BE023
:1011A00090E090938C0580938B058CE090E0909379
:1011B0009205809391058DE090E090939005809347
:1011C0008F05809181059091820583309105A9F466
:1011D00060E081E20E94B61C67E580E20E94B61CD6
:1011E00064E684E20E94B61C60E285E20E94B61CBE
:1011F00060E086E20E94B61C1CC0029731F468E0F1
:1012000083E20E947C1C67E405C060E083E20E94E8
:101210007C1C67E280E20E947C1C6CE080E00E9403
:10122000991C60E281E00E94991C60E082E00E94CB
:10123000991C809183050E94011C88EA90E00E941D
:101240009F1B0E94A41B8093800566E0809183050C
:101250000E944F1C0E9460135B018091A20390E0EA
:101260002091A303821B91090697ACF4809193050A
:1012700090919405892B89F30E9460136A197B0968
:1012800080919305909194058617970730F781E038
:101290008093950532C08BEA94E00E94810F882EDE
:1012A0008BEA94E00E94810F782E8BEA94E00E94F2
:1012B000810FA82E8BEA94E00E94810F982E8BEA72
:1012C00094E00E94810FB82E8BEA94E00E94810F77
:1012D000F72CE12CE828F0926905E0926805D92CFA
:1012E000C12CCA28D0926B05C0926A05982F882716
:1012F0008B2990936D0580936C05809184050E94E5
:10130000011C8091810590918205039731F48091B1
:10131000890590918A05806804C080918705909125
:1013200088050E949F1B0E94A41B8093800566E095
:10133000809184050E944F1C0E9460137B01809164
:10134000A20390E02091A303821B91090697ACF4BD
:101350008091930590919405892B89F30E946013E5
:101360006E197F09809193059091940586179707D0
:1013700030F781E08093950574C08091810590914C
:1013800082050397F9F48BEA94E00E94810FD82E2E
:101390008BEA94E00E94810FA82E8BEA94E00E94D1
:1013A000810FE82E8BEA94E00E94810FB82E8BEA21
:1013B00094E00E94810FF82E8BEA94E00E94810F46
:1013C000C82E39C08BEA94E00E94810FA82E8BEAC8
:1013D00094E00E94810FD82E809181059091820522
:1013E000892BA9F48BEA94E00E94810FB82E8BEA36
:1013F00094E00E94810FE82E8BEA94E00E94810F16
:10140000C82E8BEA94E00E94810FF82E14C08BEA5C
:1014100094E00E94810FC82E8BEA94E00E94810F15
:10142000F82E8BEA94E00E94810FB82E8BEA94E0AC
:101430000E94810FE82E2D2D30E03A2930936F0560
:1014400020936E052E2D30E03B29309371052093BB
:1014500070052F2D30E0C9019C299093730580936E
:1014600072056091680570916905072E000C880B64
:10147000990B0E946F2F20E030E040E85DE30E946E
:1014800053302FE539EA46E053E40E94E22D4B0148
:101490005C0160916A0570916B05072E000C880B4A
:1014A000990B0E946F2F20E030E040E85DE30E943E
:1014B000533025E03DE44EE652E40E94E12D6B01FD
:1014C0007C0160916C0570916D05072E000C880BF6
:1014D000990B0E946F2F20E030E040E85DE30E940E
:1014E00053302AEC31E64DE253E40E94E12D69834A
:1014F0007A838B839C8360916E0570916F05072EB4
:10150000000C880B990B0E946F2F24E731ED45EBFF
:1015100052E40E9453302DE83BE540E255E40E943E
:10152000E12D6D837E838F83988760917005709124
:101530007105072E000C880B990B0E946F2F24E772
:1015400031ED45EB52E40E94533021E833E04BE9A2
:1015500055E40E94E22D69877A878B879C8760918A
:10156000720570917305072E000C880B990B0E9471
:101570006F2F26EE34E14CEC52E40E94533027E307
:101580003AED42EB54E40E94E12D6D877E878F8710
:10159000988B2EEE3BEE4CE65FE3C501B4010E9452
:1015A00053302B013C012EEC3FEF4BEA5BE3C701CC
:1015B000B6010E9453309B01AC01C301B2010E94ED
:1015C000E12D2B013C0126E73EE64AE55CE369811B
:1015D0007A818B819C810E9453309B01AC01C301B5
:1015E000B2010E94E12D26E636E646E65FE30E9460
:1015F00053302B013C0120ED3CEC4CEC5DE3609161
:10160000BE027091BF028091C0029091C1020E94FF
:1016100053309B01AC01C301B2010E94E22D698BE2
:101620007A8B8B8B9C8B6093BE027093BF028093EE
:10163000C0029093C1022EEC3FEF4BEA5BEBC50179
:10164000B4010E9453302B013C012FE13FEB43E6F4
:101650005FE3C701B6010E9453309B01AC01C30197
:10166000B2010E94E22D2B013C0122EF38E245E15C
:101670005BE369817A818B819C810E9453309B015D
:10168000AC01C301B2010E94E22D26E636E646E631
:101690005FE30E9453302B013C0120ED3CEC4CEC0D
:1016A0005DE36091BA027091BB028091BC0290919F
:1016B000BD020E9453309B01AC01C301B2010E94E4
:1016C000E22D2B013C016093BA027093BB02809320
:1016D000BC029093BD0226E73EE64AE55CEBC501FD
:1016E000B4010E9453304B015C0122EF38E245E126
:1016F0005BE3C701B6010E9453309B01AC01C501F9
:10170000B4010E94E22D6B017C0122E033ED49E738
:101710005FE369817A818B819C810E9453309B01B8
:10172000AC01C701B6010E94E22D26E636E646E688
:101730005FE30E9453306B017C0120ED3CEC4CECEC
:101740005DE36091B6027091B7028091B80290910A
:10175000B9020E9453309B01AC01C701B6010E943F
:10176000E22D6B017C016093B6027093B702809307
:10177000B8029093B90226E73FED45E65FE36D813D
:101780007E818F8198850E9453304B015C012FED43
:1017900037E843E85BE369857A858B859C850E9401
:1017A00053309B01AC01C501B4010E94E22D4B01F5
:1017B0005C012EEB3DED42E15BE36D857E858F851F
:1017C00098890E9453309B01AC01C501B4010E946D
:1017D000E12D26E636E646E65FE30E9453304B01F4
:1017E0005C0120ED3CEC4CEC5DE36091B202709149
:1017F000B3028091B4029091B5020E9453309B01D4
:10180000AC01C501B4010E94E22D6093B202709355
:10181000B3028093B4029093B5022FED37E843E80A
:101820005BE36D817E818F8198850E9453304B01EF
:101830005C012DE737E74BE65FE369857A858B85A9
:101840009C850E9453309B01AC01C501B4010E94EC
:10185000E22D4B015C012EEE3DE543E85BE36D8537
:101860007E858F8598890E9453309B01AC01C5010C
:10187000B4010E94E22D26E636E646E65FE30E94CA
:1018800053304B015C0120ED3CEC4CEC5DE360918E
:10189000AE027091AF028091B0029091B1020E94AD
:1018A00053309B01AC01C501B4010E94E22D60934D
:1018B000AE027093AF028093B0029093B1022EEB10
:1018C0003DED42E15BEB6D817E818F8198850E94C9
:1018D00053304B015C012EEE3DE543E85BE3698547
:1018E0007A858B859C850E9453309B01AC01C50194
:1018F000B4010E94E22D4B015C012CE631EB4FE775
:101900005FE36D857E858F8598890E9453309B01AA
:10191000AC01C501B4010E94E22D26E636E646E69A
:101920005FE30E9453304B015C0120ED3CEC4CEC3A
:101930005DE36091AA027091AB028091AC0290913C
:10194000AD020E9453309B01AC01C501B4010E945D
:10195000E22D6093AA027093AB028093AC02909345
:10196000AD02A3019201C301B2010E9453304B01A9
:101970005C01A7019601C701B6010E9453309B018B
:10198000AC01C501B4010E94E22D0E94C6309B014A
:10199000AC0169897A898B899C890E94612E20E03B
:1019A00030E044E353E40E9453302BED3FE049E440
:1019B00050E40E94C52E6B017C01D10114966D93F9
:1019C0007D938D939C931797112309F4A2C06AEF1E
:1019D00071E08EE094E00E943712F1014081518164
:1019E0006281738122E030E08EE094E00E940D126B
:1019F00061E072E08EE094E00E94371222E030E075
:101A0000B701A6018EE094E00E940D126BE072E037
:101A10008EE094E00E943712D10118964D915D91AD
:101A20006D917C911B9722E030E08EE094E00E9463
:101A30000D1261EE71E08EE094E00E940F1269C019
:101A400089E1809383058EE18093840583E090E0B3
:101A5000909388058093870584E090E090938A05B1
:101A60008093890587E090E090938C0580938B05A7
:101A700088E090E090938E0580938D0585E090E05E
:101A80009093900580938F0586E090E02BC001979E
:101A900081F12130310599F188E1809383058EE150
:101AA0008093840583E090E0909388058093870578
:101AB00084E090E090938A058093890585E090E02A
:101AC00090938C0580938B0586E090E090938E0533
:101AD00080938D0587E090E09093900580938F052B
:101AE00088E090E090939205809391056ACB8DE118
:101AF00040CB2130310509F4A3CF88E1A2CF89E1A1
:101B0000CCCF21E030E002C020E030E083E090E084
:101B10001FCBC10164960FB6F894DEBF0FBECDBFD8
:101B2000DF91CF911F91FF90EF90DF90CF90BF900A
:101B3000AF909F908F907F906F905F904F903F906D
:101B40002F9008950F931F93CF93DF93CDB7DEB7F8
:101B500060970FB6F894DEBF0FBECDBF9B01AC01FE
:101B600003E010E060E0CE0101962D873E874F87AD
:101B7000588B0E943F08015011092D853E854F85E5
:101B800058890115110571F76EE170E080E090E071
:101B90000E9426132D853E854F8558896D817E8153
:101BA0008F8198850E94C02E181634F061E081E480
:101BB0000E94DF0581E001C080E060960FB6F894D6
:101BC000DEBF0FBECDBFDF91CF911F910F91089562
:101BD0000E94DF32CF92DF92EF92FF920F931F931A
:101BE000CF93DF936C017A018B01C0E0D0E0CE157A
:101BF000DF0589F0D8016D918D01D601ED91FC9141
:101C00000190F081E02DC6010995892B11F47E0128
:101C100002C02196ECCFC701DF91CF911F910F91A8
:101C2000FF90EF90DF90CF900895FC01538D448D8D
:101C3000252F30E0842F90E0821B930B541710F077
:101C4000CF96089501970895FC01918D828D981784
:101C500061F0828DDF01A80FB11D5D968C91928D90
:101C60009F5F9F73928F90E008958FEF9FEF08958D
:101C7000FC01918D828D981731F0828DE80FF11D56
:101C8000858D90E008958FEF9FEF0895FC01918D71
:101C9000228D892F90E0805C9F4F821B91098F736A
:101CA000992708958EE094E00E94460E21E0892B4A
:101CB00009F420E0822F0895FC01848DDF01A80F34
:101CC000B11DA35ABF4F2C91848D90E001968F7364
:101CD0009927848FA689B7892C93A089B1898C9183
:101CE00080648C93938D848D981306C00288F38949
:101CF000E02D80818F7D80830895EF92FF920F9376
:101D00001F93CF93DF93EC0181E0888F9B8D8C8DA7
:101D1000981305C0E889F989808185FD24C0F62ED5
:101D20000B8D10E00F5F1F4F0F731127E02E8C8D6E
:101D3000E8120CC00FB607FCFACFE889F989808158
:101D400085FFF5CFCE010E945C0EF1CF8B8DFE0199
:101D5000E80FF11DE35AFF4FF0820B8FEA89FB89F0
:101D60008081806207C0EE89FF896083E889F989F4
:101D700080818064808381E090E0DF91CF911F912A
:101D80000F91FF90EF900895CF93DF93EC01888D32
:101D90008823C9F0EA89FB89808185FD05C0A8896F
:101DA000B9898C9186FD0FC00FB607FCF5CF8081F5
:101DB00085FFF2CFA889B9898C9185FFEDCFCE013F
:101DC0000E945C0EE7CFDF91CF91089580E090E014
:101DD000892B29F00E94520E81110C940000089565
:101DE000833081F028F4813099F08230A1F0089599
:101DF0008730A9F08830B9F08430D1F48091800028
:101E00008F7D03C0809180008F778093800008953C
:101E100084B58F7702C084B58F7D84BD089580918D
:101E2000B0008F7703C08091B0008F7D8093B000A9
:101E300008953FB7F8948091850390918603A0910F
:101E40008703B091880326B5A89B05C02F3F19F0E2
:101E50000196A11DB11D3FBFBA2FA92F982F88272A
:101E6000820F911DA11DB11DBC01CD0143E0660F84
:101E7000771F881F991F4A95D1F70895089585ED1A
:101E80008093BC008091BC0084FDFCCF1092EA03DB
:101E9000089540915B03262F30E0240F311D21323D
:101EA0003105DCF42091EA032430C9F4FC0180E020
:101EB00090E0861758F430915B032191DC01A75C18
:101EC000BC4FA30FB11D2C930196F3CF80915B0300
:101ED000680F60935B0380E0089581E0089582E0DD
:101EE00008950895E091A3038091A203E81730F4C8
:101EF000F0E0EC55FC4F808190E008958FEF9FEF6C
:101F000008959091A3038091A203981750F4E92FAC
:101F1000F0E0EC55FC4F208130E09F5F9093A303ED
:101F200002C02FEF3FEFC90108958091A20390E016
:101F30002091A303821B91090895CF92DF92EF9223
:101F4000FF920F931F93CF93DF937C01262F972F40
:101F50008A018091EB03882391F0C62FD72F6E0161
:101F6000C40ED51ECC15DD0571F06991D701ED9138
:101F7000FC910190F081E02DC7010995F3CF642F0A
:101F8000822F0E94490FC801DF91CF911F910F91BD
:101F9000FF90EF90DF90CF900895CF93DF931F9243
:101FA000CDB7DEB769832091EB032223D1F02091D6
:101FB0000D04203240F021E030E0FC013383228325
:101FC00080E090E015C08091EC03E82FF0E0E35151
:101FD000FC4F998190838F5F8093EC0380930D0475
:101FE00005C061E0CE0101960E94490F81E090E0BA
:101FF0000F90DF91CF9108952091370330913803EE
:102000002817390771F4909136038091350398179A
:1020100041F0E0913603F0E0EB50FD4F808190E01D
:1020200008958FEF9FEF089508951F93CF93DF9347
:10203000DC015C962D913C915D972115310539F4B9
:1020400081E090E013969C938E9312973DC0519639
:10205000ED91FC91529750969C915097892F8095C5
:102060001FB75E964C915E9741FB772770F941FD53
:102070006095F8944081772311F0492B01C04823E3
:102080004083E9012197F1F748E0508160FF02C0E9
:10209000592B01C058235083E9012197F1F7669528
:1020A000415099F7772321F090818923808303C0E1
:1020B0008081982B90831FBF5C968D919C915D973A
:1020C0000197F1F721E030E0C901DF91CF911F9135
:1020D000089520913703309138032817390771F498
:1020E000809135032091360390E0805C9F4F821BE6
:1020F000910960E470E00E944031089580E090E032
:102100000895209137033091380328173907B9F41F
:102110009091360380913503981789F0E09136034A
:10212000F0E0EB50FD4F80812091360330E02F5FCF
:102130003F4F2F7333272093360390E008958FEF9E
:102140009FEF0895DC01ED91FC910190F081E02D6D
:102150000994EF92FF920F931F93CF93DF938C011B
:102160007B01C0E0D0E0F701EC0FFD1F6491662316
:1021700061F0D801ED91FC910190F081E02DC80152
:102180000995892B11F02196EECFCE01DF91CF91E9
:102190001F910F91FF90EF9008956115710579F0EF
:1021A000FB0101900020E9F73197AF01461B570B67
:1021B000DC01ED91FC910280F381E02D099480E037
:1021C00090E008954F925F926F927F92EF92FF920C
:1021D0000F931F93CF93DF93CDB7DEB7A1970FB6C1
:1021E000F894DEBF0FBECDBF7C01FA01CB0119A26E
:1021F000223008F42AE08E010F5D1F4F422E512C31
:10220000612C712CBF01A30192010E945431F9018C
:10221000CA01015011096A3014F4605D01C0695CA3
:10222000D8016C93232B242B252B61F7B801C70110
:102230000E94CD10A1960FB6F894DEBF0FBECDBFA1
:10224000DF91CF911F910F91FF90EF907F906F9052
:102250005F904F9008954F925F926F927F928F920E
:102260009F92AF92BF92CF92DF92EF92FF92CF9365
:10227000DF93EC016A017B01B22E9A01AB01C70129
:10228000B6010E940A31882319F067E672E027C080
:1022900026013701E89477F82FEF3FEF4FE75FE72C
:1022A000C301B2010E940A3181110DC02FEF3FEF2F
:1022B0004FE75FE7C301B2010E94C02E18161CF45D
:1022C0006BE672E00CC02FEF3FEF4FE75FE4C70112
:1022D000B6010E94463018169CF46FE672E0CE01FB
:1022E000DF91CF91FF90EF90DF90CF90BF90AF90B4
:1022F0009F908F907F906F905F904F900C94CD1037
:102300002FEF3FEF4FE75FECC701B6010E94C02EF1
:1023100087FDE3CF20E030E0A901C701B6010E94AC
:10232000C02E87FF0AC06DE2CE010E94A2104C01B0
:10233000F7FAF094F7F8F09402C0812C912CA12CBC
:1023400060E070E080E09FE3AB1441F020E030E01B
:1023500040E251E40E94C52EA394F6CF9B01AC014C
:10236000C701B6010E94E22D2B013C010E943E2FC5
:102370006B017C010E946D2F9B01AC01C301B20176
:102380000E94E12D2B013C012AE0B701A601CE01FC
:102390000E94E2107C01E80CF91CBB2031F06EE2D7
:1023A000CE010E94A210E80EF91EDB2CDD2029F1DF
:1023B00020E030E040E251E4C301B2010E9453301A
:1023C0002B013C010E943E2F4B01A12CB12C2AE095
:1023D000B501A401CE010E94E210E80EF91EC5016C
:1023E000B4010E946D2F9B01AC01C301B2010E9498
:1023F000E12D2B013C01DA94D9CFC701DF91CF91B8
:10240000FF90EF90DF90CF90BF90AF909F908F9014
:102410007F906F905F904F9008950C942B110F93C5
:102420001F93CF93DF93EC010E94CD108C016BEBD7
:1024300071E0CE010E94CD10800F911FDF91CF91EE
:102440001F910F9108950F931F93CF93DF93EC018A
:102450000E94A9108C016BEB71E0CE010E94CD109F
:10246000800F911FDF91CF911F910F9108950C94D0
:10247000CD101F920F920FB60F9211242F933F93FE
:102480004F935F936F937F938F939F93AF93BF937C
:10249000EF93FF938EE094E00E945C0EFF91EF912A
:1024A000BF91AF919F918F917F916F915F914F916C
:1024B0003F912F910F900FBE0F901F9018951F9274
:1024C0000F920FB60F9211242F938F939F93EF9338
:1024D000FF93E0911E04F0911F048081E091240499
:1024E000F091250482FD12C09081809127048F5FB6
:1024F0008F7320912804821751F0E0912704F0E0B7
:10250000E25FFB4F958F8093270401C08081FF918C
:10251000EF919F918F912F910F900FBE0F901F9071
:102520001895CF93DF93282F30E0F901E956FB4F40
:102530008491F901ED57FB4FD491F901E159FB4F1B
:10254000C491CC2391F081110E94F00EEC2FF0E0A9
:10255000EE0FFF1FEB59FB4FA591B491EC91ED23CA
:1025600081E090E021F480E002C080E090E0DF9123
:10257000CF9108951F93CF93DF93282F30E0F90177
:10258000E956FB4F8491F901ED57FB4FD491F901C6
:10259000E159FB4FC491CC23C9F0162F81110E9441
:1025A000F00EEC2FF0E0EE0FFF1FE55AFB4FA59168
:1025B000B4918FB7F894111105C09C91ED2FE0955F
:1025C000E92302C0EC91ED2BEC938FBFDF91CF910B
:1025D0001F910895CF93DF9390E0FC01ED57FB4FDF
:1025E0002491FC01E159FB4F8491882361F190E033
:1025F000880F991FFC01EF5AFB4FC591D491FC0144
:10260000E55AFB4FA591B491611109C09FB7F894A9
:102610008881209582238883EC912E230BC0623021
:1026200061F49FB7F8943881822F80958323888343
:10263000EC912E2B2C939FBF06C08FB7F894E881A6
:102640002E2B28838FBFDF91CF9108958F929F9279
:10265000AF92BF92CF92DF92EF92FF926B017C011B
:102660000E94190F4B015C01C114D104E104F10473
:10267000F1F00E94190FDC01CB0188199909AA0910
:10268000BB09883E9340A105B10570F321E0C21A51
:10269000D108E108F10888EE880E83E0981EA11C9D
:1026A000B11CC114D104E104F10419F7DDCFFF908E
:1026B000EF90DF90CF90BF90AF909F908F90089554
:1026C0002FB7F89460918103709182038091830306
:1026D000909184032FBF08951F920F920FB60F920F
:1026E00011242F933F938F939F93AF93BF93809128
:1026F000810390918203A0918303B0918403309170
:10270000800326E0230F2D3720F40296A11DB11D72
:1027100005C029E8230F0396A11DB11D2093800356
:102720008093810390938203A0938303B0938403E7
:102730008091850390918603A0918703B0918803CF
:102740000196A11DB11D8093850390938603A093EC
:102750008703B0938803BF91AF919F918F913F9171
:102760002F910F900FBE0F901F9018951F920F92F0
:102770000FB60F9211242F933F934F935F936F9354
:102780007F938F939F93AF93BF93EF93FF93E091CA
:102790000A01F0910B010995FF91EF91BF91AF9163
:1027A0009F918F917F916F915F914F913F912F9169
:1027B0000F900FBE0F901F9018951F920F920FB69B
:1027C0000F9211242F933F934F935F936F937F93B7
:1027D0008F939F93AF93BF93EF93FF93E091080183
:1027E000F09109010995FF91EF91BF91AF919F91F0
:1027F0008F917F916F915F914F913F912F910F90AA
:102800000FBE0F901F9018951F920F920FB60F9248
:1028100011242F933F934F935F936F937F938F93E5
:102820009F93AF93BF93EF93FF938091B900887FFD
:10283000803609F49CC068F5883209F45BC090F4D6
:10284000803109F454C038F4882309F4F6C0883084
:1028500009F44DC0F6C0883109F44CC0803209F447
:102860005DC0EFC0803409F468C048F4803309F4D7
:1028700055C0883309F0E5C08093E803D8C080359F
:1028800009F44FC0883509F45DC0883409F0D9C017
:10289000D6C0883909F4C7C0A8F4883709F467C0DE
:1028A00038F4883609F463C0803709F460C0C9C0C1
:1028B000883809F4B8C0803909F45FC0803809F05D
:1028C000C0C05BC0803B09F486C038F4803A09F48C
:1028D00066C0883A09F47FC0B4C0803C09F4A7C040
:1028E000883C09F4A4C0883B09F48AC0AAC080913E
:1028F000C50310C09091E7038091E603981770F527
:10290000E091E70381E08E0F8093E703F0E0EA5364
:10291000FC4F80818093BB0085EC86C08093E803E8
:102920008EC0E091E70381E08E0F8093E7038091F2
:10293000BB00F0E0EA53FC4F80839091E703809165
:10294000E6036EC0E091E70381E08E0F8093E7031A
:102950008091BB00F0E0EA53FC4F80838091E90353
:1029600081116DC081E08093C40384EA61C083E07B
:102970008093EA0310927F03CFCF80917F03803250
:1029800008F051C0E0917F0381E08E0F80937F03B8
:102990008091BB00F0E0E15AFC4F8083BDCF85EC15
:1029A0008093BC001092EA0380917F03803230F460
:1029B000E0917F03F0E0E15AFC4F108260917F03C9
:1029C00070E0E0915D03F0915E038FE593E009957F
:1029D00010927F0336C084E08093EA0310925C0378
:1029E00010925B03E0915903F0915A03099580918D
:1029F0005B03811105C081E080935B031092390372
:102A0000E0915C0381E08E0F80935C03F0E0E75C73
:102A1000FC4F80818093BB0090915C0380915B03AD
:102A2000981708F479CF85E88093BC000AC085EC3C
:102A30008093BC001092EA0304C01092E8030E9445
:102A40003F0FFF91EF91BF91AF919F918F917F9138
:102A50006F915F914F913F912F910F900FBE0F900B
:102A60001F9018951092EA0381E08093E903109279
:102A7000C40361E082E10E94BA1261E083E10E9436
:102A8000BA12E9EBF0E080818E7F808380818D7FB8
:102A9000808380E28093B80085E48093BC00089531
:102AA000E0913703F0913803E817F90769F4A38937
:102AB000B4899C918589809589238C9310923803E1
:102AC0001092370381E0089580E00895089580E032
:102AD00090E008950895CF93DF93EB01882329F0C8
:102AE000682F8AE295E00E941510CA30D1052CF4B7
:102AF00060E38AE295E00E94A2106AE070E080E064
:102B000090E00E942613BE018AE295E0DF91CF910A
:102B10000C94281DCF93DF93EC0166E172E08EE008
:102B200094E00E943712CA30D1052CF460E38EE0A5
:102B300094E00E94A210BE018EE094E0DF91CF915C
:102B40000C94281D0F931F93CF93DF93EC01162F46
:102B5000042F1B821A8288EE93E0A0E0B0E08C8301
:102B60009D83AE83BF8382E491E0998388831F8A2B
:102B70001E8A198E188E1B8E1A8E1D8E1C8E6E8DBF
:102B80006E7F20FB61F96E8F6695617081E068272A
:102B9000842F0E94BA1261E0802F0E94EA12402F17
:102BA00050E0FA01ED57FB4FE491E88BFA01E1594F
:102BB000FB4FE491F0E0EE0FFF1FE55AFB4F8591CC
:102BC00094919A8B898B60E0812F0E94EA128E8DFE
:102BD00081FD04C061E0812F0E94BA121C87612F21
:102BE00070E0FB01ED57FB4FE491ED87FB01E159EC
:102BF000FB4FE491F0E0EE0FFF1FEB59FB4F859187
:102C000094919F878E87DF91CF911F910F910895A7
:102C10001F920F920FB60F9211242F933F934F9351
:102C20005F936F937F938F939F93AF93BF93EF9334
:102C3000FF93E0913703F0913803309709F451C0C6
:102C4000968DA685B785858591FF04C09C918923C3
:102C500029F447C09C91892309F043C0A389B48912
:102C60009C918589809589238C9386899789019782
:102C7000F1F7608D718DA685B785558538E020E028
:102C8000CB010197F1F7822F90E095958795282F3A
:102C90004C91452309F02068315091F7868D81FDD4
:102CA00020958091350390E001968F73992730919C
:102CB0003603381749F0A0913503B0E0AB50BD4F53
:102CC0002C938093350303C0868D8160868F828D1F
:102CD000938D0197F1F7A389B4899C918589892BFC
:102CE0008C93FF91EF91BF91AF919F918F917F91C5
:102CF0006F915F914F913F912F910F900FBE0F9069
:102D00001F901895CF93DF93EC018A8D9B8D892BB3
:102D1000F1F080913703909138038C179D07B9F03B
:102D2000009711F00E9450158E8D8E7F8E8F10921D
:102D3000350310923603D0933803C0933703EB89E1
:102D4000FC8990818D89892B808381E001C080E09E
:102D5000DF91CF91089560939E0370939F038093BA
:102D6000A0039093A103DC01CB01845D9E4FAF4F84
:102D7000BF4F80939A0390939B03A0939C03B093BF
:102D80009D0382E090E090939903809398030E94C2
:102D900060136093940370939503809396039093CC
:102DA00097030895CF92DF92EF92FF920F931F93B4
:102DB0000E946013C0909403D0909503E090960316
:102DC000F09097038B019C010C191D092E093F09F6
:102DD00080919E0390919F03A091A003B091A103C5
:102DE000083E134021053105D0F00196A11DB11D0B
:102DF00080939E0390939F03A093A003B093A1039D
:102E0000B701A60148515C4F6F4F7F4F4093940329
:102E1000509395036093960370939703C9CF4091A5
:102E20009A0350919B0360919C0370919D038417BA
:102E30009507A607B707E8F0E0919203F091930396
:102E40003097B9F00995611571058105910519F063
:102E50000E94AB160EC081E090E020919803309163
:102E60009903232B11F480E090E0909399038093D1
:102E7000980360919E0370919F038091A0039091AD
:102E8000A1031F910F91FF90EF90DF90CF900895D5
:102E90004F925F926F927F928F929F92AF92BF926A
:102EA000CF92DF92EF92FF920F931F93CF93DF9316
:102EB0004B015C0180918E0390918F03A091900350
:102EC000B091910388169906AA06BB0609F4C2C000
:102ED0008CE3C82ED12CE12CF12CC501B401A70143
:102EE00096010E94543160939805CA01B901A70167
:102EF00096010E94543160939905CA01B90128E1F5
:102F000030E040E050E00E94543169017A01609362
:102F10009A05CA01B9016C5F7F4F8F4F9F4F27E021
:102F200030E040E050E00E9454316F5F60939B05B9
:102F3000412C512C320140E004E610E0C0E9D1E020
:102F4000242F30E02E54384FF901E370FF273097DB
:102F500089F4C901B8010E944031892B31F4C901BB
:102F6000BE010E944031892B29F48EE691E0A0E059
:102F7000B0E004C08DE691E0A0E0B0E0480E591E3C
:102F80006A1E7B1ED301C201AA27BB27C816D90619
:102F9000EA06FB0610F04F5FD3CF40939E053097B3
:102FA00099F4C90164E670E00E944031892B39F43C
:102FB000C90160E971E00E944031892B29F48EE655
:102FC00091E0A0E0B0E004C08DE691E0A0E0B0E0C8
:102FD000481A590A6A0A7B0AC418D508E608F7088D
:102FE000C90164E670E00E944031EC01C90160E96A
:102FF00071E00E944031AEE9B1E020E0213039F4C7
:10300000309749F4209729F4009729F402C04C9195
:1030100003C04DE101C04CE150E060E070E0C41637
:10302000D506E606F70640F0C41AD50AE60AF70AFE
:103030002F5F11962C3011F72F5F20939D05C394BD
:10304000C0929C0580928E0390928F03A092900371
:10305000B0929103DF91CF911F910F91FF90EF906C
:10306000DF90CF90BF90AF909F908F907F906F90A8
:103070005F904F90089581E08093EA020E94D216FB
:1030800060938A0370938B0380938C0390938D03DA
:103090000E94D216DC01CB010696A11DB11D8093C2
:1030A000E6029093E702A093E802B093E902089544
:1030B000CF92DF92EF92FF920F931F93CF93DF9304
:1030C0008C016A017B01C0E0D0E0C017D107D4F4C5
:1030D00061E088E00E94BA1261E089E00E94BA12C1
:1030E000C701B6010E94261360E088E00E94BA1270
:1030F00060E089E00E94BA12C701B6010E9426135F
:103100002196E3CFDF91CF911F910F91FF90EF9028
:10311000DF90CF9008951F920F920FB60F92112457
:103120002F933F934F935F936F937F938F939F93CF
:10313000AF93BF93EF93FF93F8940FB6F894A895CD
:1031400080916000886180936000109260000FBEE3
:103150000E94D2166F5F7F4F8F4F9F4F0E94AB161A
:1031600063E772E08EE094E00E94371278948091D9
:103170002301909124010097F9F0209127013091CB
:1031800028012817390794F08091E5028A3070F4FD
:1031900048EC50E060E070E090E00E94581881E058
:1031A00090E0909328018093270106C02F5F3F4F46
:1031B0003093280120932701FF91EF91BF91AF91A8
:1031C0009F918F917F916F915F914F913F912F913F
:1031D0000F900FBE0F901F9018950F931F93CF93D2
:1031E000DF9361E08AE00E94EA126AE070E080E02A
:1031F00090E00E94261360E083E00E94BA1268EE1D
:1032000073E080E090E00E94261383E00E94911218
:10321000BC018EE094E00E94281D6AEC74E08EE010
:1032200094E00E94A9108AE295E00E94821662E36F
:1032300070E080E090E00E942613C0E0D0E061E002
:1032400070E080E090E00E9426136AE18AE295E057
:103250000E94151061E070E080E090E00E9426136B
:103260006AE18AE295E00E94151061E070E080E07A
:1032700090E00E9426136AE18AE295E00E94151010
:103280006AE070E080E090E00E9426130AE010E01F
:103290008AE295E00E946910892B09F44AC08AE20B
:1032A00095E00E948110CE9709F043C065E772E077
:1032B0008EE094E00E943712BE018EE094E00E94FE
:1032C000281D6FE772E08EE094E00E940F1265E027
:1032D00070E080E090E00E94261361EE71E08AE2E7
:1032E00095E00E940F12C8ECD0E08AE295E00E94BF
:1032F0006910892B21F08AE295E00E9481102197C4
:10330000A1F765E070E080E090E00E94261361EE96
:1033100071E08EE094E00E940F126EEB74E08EE09C
:1033200094E00E94231281E08093890381E090E081
:1033300018C00150110909F0ABCF65E070E080E0E2
:1033400090E00E942613CA3FD10549F46BEA74E06D
:103350008EE094E00E94231280E090E002C021966B
:103360006ECFDF91CF911F910F9108950F931F930F
:10337000CF93DF938C0160EE71E08EE094E00E94C9
:1033800037120E94D2160E944817C8E9D5E06A8118
:1033900070E08EE094E00E94281D0E94D2160E94E8
:1033A0004817898190E00E948A150E94D2160E94D7
:1033B0004817888190E00E948A1569E072E08EE0EB
:1033C00094E00E9437120E94D2160E9448176C8126
:1033D00070E08EE094E00E94281D69E072E08EE0CB
:1033E00094E00E9437120E94D2160E9448172D8145
:1033F000622F70E08EE094E00E94281D69E072E088
:103400008EE094E00E9437120E94D2160E94481764
:103410002E8130E0B9016E54784F8EE094E00E9426
:10342000281D6BEB71E08EE094E00E94CD1061E806
:1034300072E08EE094E00E943712B8018EE094E0D2
:103440000E94281D62EE71E08EE094E00E94371227
:1034500064E170E080E090E00E9426134091A305B3
:103460005091A4056091A5057091A60526E030E075
:103470008EE094E00E940D1264E170E080E090E044
:103480000E9426136BE38EE094E00E94A21040910C
:103490009F055091A0056091A1057091A20526E0BD
:1034A00030E08EE094E00E940D1264E170E080E074
:1034B00090E00E9426136BE38EE094E00E94A2103D
:1034C00064E170E080E090E00E9426134091DE020B
:1034D0005091DF026091E0027091E10223E030E060
:1034E0008EE094E00E940D1261EE71E08EE094E0B7
:1034F000DF91CF911F910F910C940F120F931F9397
:10350000CF93DF938C010E94B6198AE295E00E9466
:10351000821664EF71E080E090E00E94261362E37F
:1035200070E080E090E00E94261360918A03709121
:103530008B0380918C0390918D030E944817C8E9FA
:10354000D5E06C8170E080E00E946B1562E370E072
:1035500080E090E00E94261360918A0370918B03B3
:1035600080918C0390918D030E9448176D8170E0CB
:103570008FE20E946B1562E370E080E090E00E94B1
:10358000261360918A0370918B0380918C03909134
:103590008D030E9448172E8130E0B9016E54784F98
:1035A0008FE20E946B1562E370E080E090E00E9481
:1035B000261360918A0370918B0380918C03909104
:1035C0008D030E9448176A8170E08BE30E946B159F
:1035D00062E370E080E090E00E94261360918A032D
:1035E00070918B0380918C0390918D030E944817FA
:1035F0002981622F70E08AE30E946B1562E370E01C
:1036000080E090E00E94261360918A0370918B0302
:1036100080918C0390918D030E9448172881622F1E
:1036200070E08AE30E946B1562E370E080E090E056
:103630000E9426136BE38AE295E00E94A21064E6E2
:1036400070E080E090E00E94261361E872E08AE278
:1036500095E00E943712B8018AE295E00E94281D89
:1036600062EE71E08AE295E00E94371264E170E058
:1036700080E090E00E9426134091A3055091A4059C
:103680006091A5057091A60526E030E08AE295E0FC
:103690000E940D1264E170E080E090E00E94261329
:1036A0006BE38AE295E00E94A21040919F05509141
:1036B000A0056091A1057091A20526E030E08AE2A4
:1036C00095E00E940D1264E170E080E090E00E94BD
:1036D00026136BE38AE295E00E94A21064E170E099
:1036E00080E090E00E9426134091DE025091DF02BC
:1036F0006091E0027091E10223E030E08AE295E01F
:103700000E940D1261EE71E08AE295E00E940F12B4
:1037100082E08093EA020E94D216DC01CB0105967A
:10372000A11DB11D8093E6029093E702A093E802E9
:10373000B093E902DF91CF911F910F910895682F07
:103740008BEA94E00C94CD0F20910D049091970595
:10375000213208F04AC08091EA038111FCCF32E0A7
:103760003093EA0331E03093E9033FEF3093E8030D
:103770001092E7032093E603ADEEB3E046EC53E08E
:10378000FA013E2F341B321718F43D913193F9CFD3
:103790001092C5032091C503990F922B9093C503F6
:1037A0009091C403913061F41092C4039091C503C9
:1037B0009093BB009091BC0093FDF8CF95EC01C0B5
:1037C00095EE9093BC009091EA039230E1F39091D2
:1037D000E8039F3F79F08091E803803241F08091C7
:1037E000E803803331F084E005C081E003C082E06B
:1037F00001C083E01092EC0310920D041092EB03D1
:10380000089591E09093EB03809397051092EC0359
:1038100010920D0408959091EA039111FCCF91E06C
:103820009093EA039093E9032FEF2093E80310921B
:10383000E703260F2093E6039093C5039091C503F9
:10384000880F892B8093C5038091C403813061F474
:103850001092C4038091C5038093BB008091BC008B
:1038600083FDF8CF85EC01C085EE8093BC0080918C
:10387000EA038130E1F38091E703861710F4609149
:10388000E703A6ECB3E024EA33E0F9018E2F821BB4
:10389000861718F48D918193F9CF862F08956132A0
:1038A00008F060E20E940B1C1092A3038093A20315
:1038B00008951F93CF93DF931F92CDB7DEB7682F84
:1038C0008EE169830E94011C69818BEA94E00E9469
:1038D000CD0F0E94A41B61E08EE10E944F1C8BEA79
:1038E00094E00E94810F182F0E94A41B812F0F903B
:1038F000DF91CF911F9108950F931F93CF93DF9383
:10390000082F162FC8E6D5E08B8D0E94011C602F72
:103910008BEA94E00E94CD0F612F8BEA94E00E9425
:10392000CD0F0E94A41B888FDF91CF911F910F9123
:1039300008950F931F93CF93DF93082F162FC8E698
:10394000D5E08C8D0E94011C602F8BEA94E00E94D0
:10395000CD0F612F8BEA94E00E94CD0F0E94A41B33
:10396000888FDF91CF911F910F910895209181054C
:10397000309182052330310511F0803210F40C941F
:10398000991C0C947C1C1F93CF93DF931F92CDB78F
:10399000DEB7182F69830E94011C69818BEA94E0CD
:1039A0000E94CD0F0E94A41B811112C061E0812FE3
:1039B0000E944F1C9091A2038091A303981741F09D
:1039C0008BEA94E00F90DF91CF911F910C94810FBF
:1039D0008FEF9FEF0F90DF91CF911F910895CF92BE
:1039E000DF92EF92FF92CF93DF936C01990FEE0875
:1039F000FF08F7FE16C06DE28EE094E00E94A21070
:103A0000EC0144275527BA014C195D096E097F095D
:103A10002AE08EE094E00E94E2107C01EC0EFD1E94
:103A200008C02AE0B701A6018EE094E00E94E210EF
:103A30007C016BEB71E08EE094E00E94CD108E0D66
:103A40009F1DDF91CF91FF90EF90DF90CF90089571
:103A5000CF92DF92EF92FF920F931F93CF93DF935A
:103A60006B01770FEE08FF08F7FE1BC0EC016DE25B
:103A70000E94A2108C0144275527BA014C195D09F8
:103A80006E097F092AE0CE010E94E210800F911F8B
:103A9000DF91CF911F910F91FF90EF90DF90CF902A
:103AA00008952AE0B701A601DF91CF911F910F91F0
:103AB000FF90EF90DF90CF900C94E2106F927F9286
:103AC0008F929F92AF92BF92CF92DF92EF92FF922E
:103AD0000F931F93CF93DF931F92CDB7DEB75C0197
:103AE0000E94ED186CEA7DE080E090E00E942613D1
:103AF00060EF74E08AE295E00E94231298ECC92EF0
:103B0000D12C612C712C00E010E02AE0922E882448
:103B100083948AE295E00E946910892B09F464C0BD
:103B20008AE295E00E948110282F682F8EE094E0B1
:103B300029830E94A21029810D3011057CF06DEDC2
:103B400074E08EE094E00E94231263E872E08AE25F
:103B500095E00E940F1281E090E061C02D3211F4D7
:103B60008092960580ED820F8A3070F4969CC00199
:103B7000979C900D1124820F911D27FD9A953C0171
:103B800020E3621A710830C02C3271F580919605DD
:103B9000882329F071946194710810929605780138
:103BA000EE0CFF1CEA0CFB1CF701718260823801ED
:103BB000FFEF6F1A7F0A69E872E08EE094E00E94DE
:103BC0003712B8018EE094E00E94281D68E972E087
:103BD0008EE094E00E943712F701808191810E946B
:103BE000EF1C8301612C712C6AE070E080E090E0B2
:103BF0000E942613F1E0CF1AD10809F08ACF61E0C4
:103C000083E00E94BA126AE070E080E090E00E94D7
:103C1000261360E08AE00E94EA1280E090E00F90B4
:103C2000DF91CF911F910F91FF90EF90DF90CF9098
:103C3000BF90AF909F908F907F906F9008950F935B
:103C40001F93CF93DF93EC0160E070E0CB01E9912B
:103C500020ED2E0F2A30C0F4AAE0B0E09B01AC01A9
:103C60000E948B310E2FEE0F110B220B330BDC0158
:103C7000CB01800F911FA21FB31FBC01CD01605368
:103C8000710981099109E3CFDF91CF911F910F91C4
:103C900008950F931F93CF93C1E080910D058D324E
:103CA00021F0C0E00DE015E002C00EE015E0C80113
:103CB0000E941F1E9B01AC01A4E6B0E00E948B3164
:103CC000F801DF01219130ED320F3A30D0F32E327E
:103CD00069F511962C91119730ED320F3A3030F58D
:103CE000022E000C330B205331094AE0429F800121
:103CF000439F100D1124012E000C220B330B600F7B
:103D0000711F821F931F12960C9120ED200F2A30F5
:103D100068F4002E000C110B00531109012E000C49
:103D2000220B330B600F711F821F931FCC2339F0BE
:103D300090958095709561957F4F8F4F9F4FCF9154
:103D40001F910F9108954F925F926F927F928F9281
:103D50009F92AF92BF92CF92DF92EF92FF92CF935A
:103D6000DF938DE095E00E941F1E2B013C0124E6AD
:103D700030E040E050E00E9454319B01AC0160EA29
:103D800076E881E090E00E9424316B017C01EDE057
:103D9000F5E0819190ED980F9A30D8F38E3219F5B5
:103DA000EF0180E1882E87E2982EA12CB12CA991F9
:103DB00080ED8A0F8A30B8F40A2E000CBB0BD09726
:103DC000A50194010E949631C60ED71EE81EF91E69
:103DD000C501B4012AE030E040E050E00E945431D7
:103DE00049015A01E4CFC701B6016D5F7F4F8F4F84
:103DF0009F4F26E030E040E050E00E9454316901DE
:103E00007A01C301B20124E630E040E050E00E94B4
:103E1000543160E472E48FE090E00E9424316C0D34
:103E20007D1D8E1D9F1DDF91CF91FF90EF90DF9044
:103E3000CF90BF90AF909F908F907F906F905F904A
:103E40004F9008958091290120E4829FC0011124A0
:103E5000816080937C0080917A00806480937A00F6
:103E600080917A0086FDFCCF8091780020917900C6
:103E700090E0922B08952F923F924F925F926F9213
:103E80007F928F929F92AF92BF92CF92DF92EF92EA
:103E9000FF920F931F93CF93DF93CDB7DEB72C978D
:103EA0000FB6F894DEBF0FBECDBF0E9460136B014A
:103EB0007C0110E022E0A22E01E00E946013DC01F0
:103EC000CB018C199D09AE09BF09803D9740A10522
:103ED000B10508F096C289E495E00E946910892B2B
:103EE00061F389E495E00E948110B82E809120054D
:103EF00090912105A0912205B09123050196A11D65
:103F0000B11D8093200590932105A0932205B093C5
:103F1000230524E2B21609F453C2E0911E052B15C5
:103F20003CF08AE0B81679F09DE0B91256C20BC099
:103F3000AAE2BA1641F0BCE2BB124FC280910B0557
:103F40008B2580930B05EF3008F027C2F0E0E35F8C
:103F5000FA4F108280910C05882309F428C1209122
:103F60000D053FEB320F822F022E000C990B3630DD
:103F700010F4C79707C02156263018F487559109C9
:103F800001C0C097282F2295207F30910E054FEB5E
:103F9000430F832F032E000C990B463010F4C79764
:103FA00007C03156363018F48755910901C0C097C3
:103FB000820F90910B058913F0C080911F05882313
:103FC00009F4EBC180912405909125050196909309
:103FD0002505809324058091FF0490910005A09110
:103FE0000105B09102058093FB049093FC04A0931B
:103FF000FD04B093FE048091070590910805A091FF
:104000000905B0910A058093030590930405A093D8
:104010000505B093060580911C05882309F464C04A
:10402000813009F0B6C18091BB049091BC04A0918D
:10403000BD04B091BE048093B7049093B804A093DC
:10404000B904B093BA048091C3049091C404A091C0
:10405000C504B091C6048093BF049093C004A0939C
:10406000C104B093C2048091CB049091CC04A09180
:10407000CD04B091CE048093C7049093C804A0935C
:10408000C904B093CA048091D3049091D404A09140
:10409000D504B091D6048093CF049093D004A0931C
:1040A000D104B093D2048091E3049091E404A091F0
:1040B000E504B091E6048093DF049093E004A093BC
:1040C000E104B093E2048091EB049091EC04A091A0
:1040D000ED04B091EE048093E7049093E804A0937C
:1040E000E904B093EA0455C18091DB049091DC04AB
:1040F000A091DD04B091DE048093D7049093D8049E
:10410000A093D904B093DA048091BB049091BC04CD
:10411000A091BD04B091BE048093B7049093B804FD
:10412000A093B904B093BA048091CB049091CC04CD
:10413000A091CD04B091CE048093C7049093C8049D
:10414000A093C904B093CA048091D3049091D4047D
:10415000A091D504B091D6048093CF049093D0045D
:10416000A093D104B093D2048091F9049091FA0401
:104170009093F8048093F7048091F3049091F404F1
:10418000A091F504B091F6048093EF049093F004AD
:10419000A093F104B093F204FCC0809126059091A5
:1041A000270501969093270580932605F6C09091E8
:1041B0001D0591111CC0ADE0B5E04CE952E09D0138
:1041C000F90181919F01882309F4E5C0FA019191D9
:1041D000AF018917A9F3E4EAF2E08D91882309F48D
:1041E0006CC391918917C9F3A0921C05D6C0E091C8
:1041F0001C05E23009F4D1C080910D05882309F433
:10420000CCC020E2E29FF0011124E92B3197E93282
:10421000F10508F0C2C0EC5CFF4F0C9476310E94AF
:10422000491E6093BB047093BC048093BD049093BB
:10423000BE040E9460136093FF0470930005809396
:10424000010590930205A9C091E0813409F07DC079
:104250007DC00E94A31E6093CB047093CC04809316
:10426000CD049093CE040E94601360930705709371
:1042700008058093090590930A058FC0833509F0DE
:104280008CC08091CB049091CC04A091CD04B091CE
:10429000CE04B095A095909581959F4FAF4FBF4F9D
:1042A0008093CB049093CC04A093CD04B093CE0420
:1042B00074C00E94A31E6093D3047093D4048093AF
:1042C000D5049093D60469C0873509F066C0809103
:1042D000D3049091D404A091D504B091D604B095A4
:1042E000A095909581959F4FAF4FBF4F8093D3047A
:1042F0009093D404A093D504B093D6044EC00E94EA
:10430000491E6093E3047093E4048093E504909362
:10431000E60443C00E94491E6093EB047093EC04D2
:104320008093ED049093EE0438C08DE095E00E94F8
:104330001F1E6093C3047093C4048093C5049093BC
:10434000C6042BC091E081330CF490E090931F05DC
:1043500024C08DE095E00E94BB2D99279093FA042C
:104360008093F9041AC00E94491E6093F30470936D
:10437000F4048093F5049093F6040FC00E94491E44
:104380006093DB047093DC048093DD049093DE047F
:1043900004C091E003C000931C0590E080911D05CE
:1043A0008F5F80931D0510921E0581E0AAE2BA126C
:1043B00080E080930C05992309F48DCD11E08BCD1D
:1043C00010921E0510921D0510920B05A0921C055F
:1043D00010920C0510921F057ECDEE3040F481E066
:1043E0008E0F80931E05F0E0E35FFA4FB08280915C
:1043F0000C05811170CD80910B058B2580930B05E9
:104400006ACD112309F44FC2C090C704D090C804EC
:10441000E090C904F090CA048090CF049090D0043A
:10442000A090D104B090D20480910305909104052E
:10443000A0910505B09106058F3F9F4FAF4FBF4F2D
:1044400011F00E9460132FEFC21629ECD2062AE960
:10445000E2062BE3F20659F0C701B6010E946F2F66
:1044600020E034E244E759E40E94C52E04C060E035
:1044700070E08AE794E46093A3057093A4058093A9
:10448000A5059093A6058FEFC81689ECD8068AE992
:10449000E8068BE3F80659F0C501B4010E946F2FBE
:1044A00020E034E244E759E40E94C52E04C060E0F5
:1044B00070E08AE794E460939F057093A005809371
:1044C000A1059093A2054090BF045090C004609055
:1044D000C1047090C2048090B7049090B804A0907A
:1044E000B904B090BA048091FB049091FC04A091AF
:1044F000FD04B091FE048F3F9F4FAF4FBF4F11F0AF
:104500000E946013C301B20124E630E040E050E0B5
:104510000E94543169837A838B839C836135710552
:104520008105910518F00CE617E002C000ED17E0D8
:1045300084E6C82ED12CE12CF12CC301B201A701D5
:1045400096010E945431CA01B901A70196010E9447
:1045500054316D837E838F839887C301B20120E13C
:1045600037E240E050E00E9454312C87C501B4018D
:1045700020E432E44FE050E00E945431322EC50175
:10458000B40120E137E240E050E00E945431CA011A
:10459000B901A70196010E9454316B8779878A87F8
:1045A000292EC501B401A70196010E945431CA0108
:1045B000B901A70196010E9454316B017C018981E8
:1045C0009A81080F191FF801E25BF740E0939E05FE
:1045D0009D8190939D05AC85A0939C0530929A0592
:1045E000BB85B0939905C0929805AE2FB0E020E846
:1045F00033E341EE51E00E948B312B013C0122EB71
:1046000037E0FF2794E6A92EB12C00E911E0C9019B
:10461000825B97408E179F07DCF4C901837099274E
:10462000892B99F4C901B5010E944031892B31F4DD
:10463000C901B8010E944031892B39F480E8480E45
:1046400081E5581E81E0681E711C2F5F3F4FDFCF50
:104650009F012E54384FC90164E670E00E9440313A
:104660005C01C90160E971E00E9440314C01E1E068
:10467000F0E0890103701127AD81BE81EA17FB07C5
:104680002CF5E230F10589F40115110571F4A1143E
:10469000B10419F48114910441F490E8490E9BE3AC
:1046A000591E96E2691E711C0FC0DF01A356BE4F52
:1046B000AC91B0E020E831E541E050E00E948B3160
:1046C000460E571E681E791E3196D6CF232D30E038
:1046D000A0E1BEE00E947C314B015C01ACE3B0E0A4
:1046E0002B8539854A85522D0E948B31860E971E67
:1046F000A81EB91EC80CD91CEA1CFB1CEC85AE2FE9
:10470000B0E0119720E831E541E050E00E94963199
:10471000C60ED71EE81EF91EC701B601640D751D31
:10472000861D971D0E94AB160E94D21660587F48C6
:104730008F4F9F4F0E94AB166AE275E08EE094E0C7
:104740000E9423120091AF051091B00501151105CB
:1047500069F481E090E09093B0058093AF0561E249
:1047600075E08EE094E00E9423124CC006301105E3
:104770000CF04AC02091A3053091A4054091A505F5
:104780005091A6056091AB057091AC058091AD0587
:104790009091AE050E94E22D6093AB057093AC053D
:1047A0008093AD059093AE0520919F053091A005B3
:1047B0004091A1055091A2056091A7057091A805AF
:1047C0008091A9059091AA050E94E22D6093A7050A
:1047D0007093A8058093A9059093AA050F5F1F4FBA
:1047E0001093B0050093AF056EE075E08EE094E0A5
:1047F0000E9423126091AF057091B0058EE094E0A5
:104800000E94281D01E050C020E030E040EA50E462
:104810006091AB057091AC058091AD059091AE05AE
:104820000E94C52E6093A3057093A4058093A505EF
:104830009093A60520E030E040EA50E46091A7059F
:104840007091A8058091A9059091AA050E94C52E96
:1048500060939F057093A0058093A1059093A20596
:104860001092B0051092AF051092AB051092AC05F6
:104870001092AD051092AE051092A7051092A805F2
:104880001092A9051092AA056CEF74E08EE094E0F6
:104890000E9423120E943B1861E087E40E94DF051A
:1048A00082E090E00DC000E010E062EA72E08EE08D
:1048B00094E00E943712C80103C010921C056DCD10
:1048C0002C960FB6F894DEBF0FBECDBFDF91CF910F
:1048D0001F910F91FF90EF90DF90CF90BF90AF901E
:1048E0009F908F907F906F905F904F903F902F9010
:1048F0000895FC01138E128E118E108E178A168A5F
:104900008DEC90E0958F848F8485863108F04DC0C2
:1049100025E530E0378B268B2BEC30E0318F208F74
:1049200020E930E0338F228F90916800883050F07A
:1049300021E08E3008F420E081E001C0880F2A9544
:10494000EAF701C084E0892B809368008485883071
:1049500038F08E3040F0863148F020E030E008C07A
:104960002DE630E005C02BE630E002C02CE630E05A
:10497000348B238B883030F491E001C0990F8A95F5
:10498000EAF70EC0282F30E08E3018F42850310995
:1049900002C02E50310991E001C0990F2A95EAF723
:1049A000958B848D958D0197F1F7CF010C9482162C
:1049B000CF93DF93CDB7DEB76C970FB6F894DEBF19
:1049C0000FBECDBF789484B5826084BD84B581600C
:1049D00084BD85B5826085BD85B5816085BD8091CA
:1049E0006E00816080936E00109281008091810042
:1049F000826080938100809181008160809381003A
:104A0000809180008160809380008091B1008460FB
:104A10008093B1008091B00081608093B00080915C
:104A20007A00846080937A0080917A00826080931B
:104A30007A0080917A008E7F80937A0080917A004C
:104A4000806880937A001092C10061E084E00E9447
:104A5000EA1261E084E00E94BA1261E085E00E94FF
:104A6000EA1261E085E00E94BA1261E088E00E94EB
:104A7000EA1261E089E00E94EA1244E650E060E058
:104A800070E081E090E00E94581861E083E00E94AD
:104A9000EA1261E083E00E94BA1244E650E060E06E
:104AA00070E081E090E00E94581860E083E00E948E
:104AB000BA1244E650E060E070E081E090E00E94CD
:104AC000581861E08DE00E94EA1260E08CE00E94DC
:104AD000EA1260E082E00E94EA1260E081E10E9456
:104AE000EA1260E080E10E94EA1261E087E00E9441
:104AF000EA1261E086E00E94EA1244E650E060E0DB
:104B000070E081E090E00E94581883E080932901D2
:104B100061E085E00E94BA1260E086E00E94BA126D
:104B200044E650E060E070E081E090E00E945818B8
:104B30001092A3031092A2031092EC0310920D04A2
:104B40000E94321589E495E00E94792464E670E0C1
:104B500080E090E00E9426138AE295E00E9479248A
:104B600064E670E080E090E00E94261344E650E0A6
:104B700060E070E081E090E00E945818E0911E042F
:104B8000F0911F0482E08083E0911A04F0911B04ED
:104B90001082E0911C04F0911D0488E08083109243
:104BA0002604E0912204F091230486E08083E091C2
:104BB0002004F0912104808180618083E0912004B1
:104BC000F0912104808188608083E0912004F0913D
:104BD0002104808180688083E0912004F091210489
:104BE00080818F7D808361E972E08EE094E00E9495
:104BF000231261E083E40E94DF050E9460136B01D1
:104C00007C010E946013AB01BC014C195D096E0967
:104C10007F09463951056105710540F48EE094E045
:104C20000E94240E0E94221F8C01EBCF6FE772E0DE
:104C30008EE094E00E94A910C8010E94EF1C0E941F
:104C4000221F813293400CF471C00E9460136B01EB
:104C50007C010E946013DC01CB018C199D09AE0917
:104C6000BF09883E9340A105B10528F48EE094E089
:104C70000E94240EEECF6AE572E08EE094E00E947E
:104C8000231261E085E00E94BA128EE094E00E9457
:104C9000C40E44E650E060E070E083E090E00E94E3
:104CA000581864E670E080E090E00E9426130E94AD
:104CB00060136B017C010E946013DC01CB018C1935
:104CC0009D09AE09BF0988389341A105B10508F0D7
:104CD0004EC68EE094E00E94460E892B61F38EE072
:104CE00094E00E94240E182F682F8EE094E00E941A
:104CF0007D0E63E172E08EE094E00E94371213377C
:104D000039F46CE472E08EE094E00E9423120EC04D
:104D100081E08093E20261E472E08EE094E00E9420
:104D2000231261E0812F0E94DF05A7C044E650E016
:104D300060E070E081E090E00E9458188DE091E022
:104D40000E945E1D64EE71E08EE094E00E942312EA
:104D5000CE0101960E945E1DEDE0F1E0DE011196AC
:104D6000219131918D919D912817390749F06BEB75
:104D700071E08EE094E00E94231280E090E00CC08D
:104D800081E0E532F80761F760ED71E08EE094E0D4
:104D90000E94231281E090E0892B81F283B7817F0A
:104DA000866083BF6AE172E08EE094E00E94231285
:104DB00061E087E60E94DF050E9460136B017C01C1
:104DC0000E946013DC01CB018C199D09AE09BF095B
:104DD00080349F41A105B105A8F489E495E00E94C3
:104DE0006910892B69F389E495E00E94811087346A
:104DF00039F76CE072E08EE094E00E94231200E04C
:104E000010E002C001E010E061E087E40E94DF05ED
:104E1000012B69F062E072E08EE094E00E942312C0
:104E200044E650E060E070E08AE090E006C044E6CE
:104E300050E060E070E081E090E00E94581810922D
:104E4000E6021092E7021092E8021092E90244E6AC
:104E500050E060E070E08AE090E00E94581840ED79
:104E600057E060E070E081E090E00E94581866EF43
:104E700071E08EE094E00E94231206E4EE24E394B5
:104E8000F12C9AE6C92E95E1D92E2EE3A22E2FE021
:104E9000B22E8091EA02823081F40E94D2164090B4
:104EA000E6025090E7026090E8027090E902461630
:104EB00057066806790608F46FC58091EA028130CA
:104EC000D9F561E08AE00E94EA126AE070E080E0D1
:104ED00090E00E94261360E083E00E94BA120E94D4
:104EE000D2164090E6025090E7026090E80270907F
:104EF000E9024616570668067906F0F44528462862
:104F00004728D1F01092E6021092E7021092E802D0
:104F10001092E9021092EA028091E5028A3018F0BC
:104F20006AE00E94343190E00E947E1A6EE374E0E1
:104F30008EE094E00E9423128091E402882301F124
:104F40008AE295E00E946910892B49F08AE295E097
:104F50000E948110682F8EE094E00E947D0E8EE00A
:104F600094E00E94460E892B09F4FEC48EE094E082
:104F70000E94240E682F8AE295E00E941510F4C466
:104F80008091E302882331F061E0CE0101960E9416
:104F90003F08EAC48091E2028823E1F08EE094E0C9
:104FA0000E94460E892B09F4DFC48EE094E00E9433
:104FB000240E182F682F8EE094E00E947D0E63E18E
:104FC00072E08EE094E00E94371261E0812F0E942F
:104FD000DF05CAC41091E502173009F460C4C8F4B3
:104FE000133009F489C178F4113009F4A8C008F02D
:104FF00018C161E083E40E94DF0561E087E40E945C
:10500000DF051AE096C4153009F459C208F43DC210
:1050100095C3183209F4FBC1E8F4143109F4C3C094
:105020001E3109F439C11A3009F082C462E370E01C
:1050300080E090E00E94261363E374E08EE094E049
:105040000E94231262E370E080E090E00E94261349
:1050500011E06FC41C3309F423C3163409F4D7C319
:10506000123309F065C462E370E080E090E00E94D2
:10507000261362E973E08EE094E00E94231268E751
:1050800073E08EE094E00E94A91060911901709184
:105090001A018EE094E00E94281D6AE673E08EE01B
:1050A00094E00E94A91080912501909126010E9410
:1050B000EF1C62E370E080E090E00E94261361E064
:1050C00087E60E94DF050E94D216209119013091D7
:1050D0001A012901330F66087708DC01CB01840D22
:1050E000951DA61DB71D8093F1029093F202A09327
:1050F000F302B093F4020E94D21620912501309160
:1051000026012901330F66087708DC01CB01840DE5
:10511000951DA61DB71D8093ED029093EE02A093FE
:10512000EF02B093F00261E083E40E94DF05109289
:10513000EC021092EB020E943B1815E0FAC368E102
:1051400072E08EE094E00E940F1264EF71E080E064
:1051500090E00E94261383B7817F846083BF83B76A
:10516000816083BFD0920901C092080180916900DB
:105170008C7F826080936900E89A83B7816083BFE7
:10518000889583B78E7F83BFF89483B78E7F83BF64
:10519000E898B0920901A0920801789460E083E059
:1051A0000E94BA12C3C362E370E080E090E00E9404
:1051B000261367E274E08EE094E00E94231261E11E
:1051C00074E08EE094E00E94A91080910F0190910C
:1051D00010010E94EF1C62E370E080E090E00E940A
:1051E00026130E94D21620910F013091100129013F
:1051F000330F66087708DC01CB01840D951DA61DD1
:10520000B71D8093F1029093F202A093F302B09342
:10521000F40261E083E60E94DF050E943B1812E081
:1052200088C30E94D2164090F1025090F202609022
:10523000F3027090F402461657066806790678F471
:1052400060E083E00E94BA1261E083E40E94DF051F
:1052500064E170E080E090E00E9426131EE182E0AD
:105260000E949112892B09F464C368EE73E080E018
:1052700090E00E94261382E00E949112892B09F48B
:1052800058C360E083E00E94BA1268E272E08EE0E8
:1052900094E00E940F12B4C262E370E080E090E0FC
:1052A0000E9426136AEF73E08EE094E00E942312BE
:1052B0006FED73E08EE094E00E94A91060911301FD
:1052C000709114018EE094E00E94281D60ED73E05F
:1052D0008EE094E00E94A91080911101909112013A
:1052E0000E94EF1C62E370E080E090E00E942613D1
:1052F0000E943B1813E01DC30E94D2164090ED029D
:105300005090EE026090EF027090F0024616570641
:1053100068067906C8F560E083E00E94BA12BE0113
:105320006F5F7F4FCE014B960E94FB046093DE02BD
:105330007093DF028093E0029093E10264E670E0F4
:1053400080E090E00E9426130E943B1864E670E023
:1053500080E090E00E9426130E94D2162091110155
:10536000309112012901330F66087708DC01CB0167
:10537000840D951DA61DB71D8093ED029093EE023E
:10538000A093EF02B093F0026091130170911401A9
:10539000072E000C880B990B0E946F2F0E94A20D04
:1053A000882389F060E083E00E94BA1260E372E033
:1053B0008EE094E00E940F1264E170E080E090E0E3
:1053C0000E94261318E282E00E949112892B09F4B0
:1053D000B0C268EE73E080E090E00E94261382E0A5
:1053E0000E949112892B09F4A4C260E083E00E941C
:1053F000BA1268E272E08EE094E00E940F1264E15B
:1054000070E080E090E00E94261312E392C262E313
:1054100070E080E090E00E94261362EC73E08EE082
:1054200094E00E9423126FE973E08EE094E00E9402
:10543000A91080911701909118010E94EF1C62E35E
:1054400070E080E090E00E94261361E083E60E9415
:10545000DF050E94D2162091170130911801290111
:10546000330F66087708DC01CB01840D951DA61D5E
:10547000B71D8093F1029093F202A093F302B093D0
:10548000F4020E943B1814E054C20E94D2164090CD
:10549000F1025090F2026090F3027090F40246160E
:1054A00057066806790608F08ECF60E083E00E9418
:1054B000BA1261E083E40E94DF051EE184CF0E94FE
:1054C000D2164090ED025090EE026090EF02709084
:1054D000F002461657066806790630F51092EC027F
:1054E0001092EB020E94D2162091250130912601E4
:1054F0002901330F66087708DC01CB01840D951D67
:10550000A61DB71D8093ED029093EE02A093EF02CB
:10551000B093F00269E573E08EE094E00E942312FC
:1055200061E087E60E94DF050E94D2164090F102FA
:105530005090F2026090F3027090F4024616570603
:105540006806790640F561E087E40E94DF0582E0A5
:105550000E949112892B09F48AC064EF71E080E007
:1055600090E00E94261382E00E949112892B09F498
:105570007EC060E083E00E94BA1266E473E08EE0D1
:1055800094E00E94231264E170E080E090E00E94C9
:1055900026131CE36CC08091EB029091EC02892BE6
:1055A00009F065C00E943B1F81309105D1F0029740
:1055B00009F05DC0F092EC02E092EB026CE472E064
:1055C0008EE094E00E94371280912501909126018F
:1055D0000E94EF1C61E087E40E94DF050E943B18F7
:1055E00046C080910C01882309F441C00E94D21664
:1055F0002091190130911A012901330F66087708AB
:10560000DC01CB01840D951DA61DB71D8093F10211
:105610009093F202A093F302B093F4020E94D21688
:1056200020912501309126012901330F6608770862
:10563000DC01CB01840D951DA61DB71D8093ED02E5
:105640009093EE02A093EF02B093F0020E94D21664
:105650000E94481780919E0590E0899714F010925F
:105660000C016AE372E08EE094E00E94371282E05F
:105670000E949112892B09F05CC16CE271E080E01C
:1056800090E00E94261382E00E949112892B09F07B
:1056900050C160E083E00E94BA1269E373E03CC14C
:1056A00062E370E080E090E00E9426136BE273E01A
:1056B0008EE094E00E9423126CE173E08EE094E0AF
:1056C0000E9423126AE073E08EE094E00E94A91029
:1056D00060912101709122018EE094E00E94281DCA
:1056E0006DEF72E08EE094E00E94A91080911B01A2
:1056F00090911C010E94EF1C62E370E080E090E05A
:105700000E9426130E94D21620912101309122017D
:105710002901330F66087708DC01CB01840D951D44
:10572000A61DB71D8093F1029093F202A093F3029D
:10573000B093F4020E943B1816E0FBC060911B017D
:1057400070911C01072E000C880B990B0E946F2F83
:105750000E94A20D882371F063EF72E08EE094E066
:105760000E94231264E170E080E090E00E94261322
:1057700016E4DFC082E00E949112892BE9F464EF05
:1057800071E080E090E00E94261382E00E94911276
:10579000892B09F0CEC060E083E00E94BA1266EE69
:1057A00072E08EE094E00E94231264E170E080E0F9
:1057B00090E00E942613B4C00E94D2164090F102DD
:1057C0005090F2026090F3027090F4024616570671
:1057D0006806790608F0ADC063ED72E08EE094E0F3
:1057E0000E94231264E170E080E090E00E942613A2
:1057F00061E087E40E94DF0561E083E40E94DF0549
:1058000064E170E080E090E00E94261391C062E3C2
:1058100070E080E090E00E94261369EC72E08EE078
:1058200094E00E94231260E672E08EE094E00E9411
:105830000F1268EB72E08EE094E00E94A910809154
:105840001F01909120010E94EF1C62E370E080E054
:1058500090E00E94261361E087E60E94DF050E9427
:10586000D21620911F01309120012901330F6608C3
:105870007708DC01CB01840D951DA61DB71D809313
:10588000F1029093F202A093F302B093F40261E06C
:1058900083E40E94DF050E943B1817E04AC00E9483
:1058A000D2164090F1025090F2026090F302709094
:1058B000F4024616570668067906B0F460E083E005
:1058C0000E94BA1261E087E40E94DF056AEA72E092
:1058D0008EE094E00E94231264E170E080E090E0AA
:1058E0000E9426131CE302C00E943B1F82E00E941C
:1058F0009112892BF1F468EE73E080E090E00E9451
:10590000261382E00E949112892B99F460E083E0D3
:105910000E94BA126DE972E08EE094E00E942312B8
:1059200064E170E080E090E00E94261314E101C081
:1059300010E01093E5021230B8F069E170E080E009
:1059400090E00E942613F89414BE80916000886154
:105950008093600000936000789483B7816083BF78
:10596000889583B78E7F83BF0E94E60E92CA64E259
:1059700072E08EE094E00E9423126CE271E080E01D
:1059800090E00E94261361E086E00E94BA1261E076
:1059900083E60E94DF05FFCF1092E6021092E70235
:1059A0001092E8021092E90261E083E00E94BA12CC
:1059B0006AE070E080E090E00E94261360E08AE0F8
:1059C0000E94EA121092EA0278CACF93DF93C2E4EF
:1059D000D1E0D0932B05C0932A058AE295E00E947E
:1059E0005015D0934A05C093490589E495E0DF91AD
:1059F000CF910C945015EEE0F4E01382128288EE01
:105A000093E0A0E0B0E084839583A683B78320E68B
:105A100031E03183208325EC30E03587248724EC86
:105A200030E03787268720EC30E0318B208B21EC6B
:105A300030E0338B228B22EC30E0358B248B26EC4C
:105A400030E0378B268B118E128E138E148EEBEA7C
:105A5000F4E01382128284839583A683B78382E75E
:105A600091E09183808386E0E0E5F1E0AAE7B5E08C
:105A700001900D928A95E1F786E0E6E5F1E0A4E772
:105A8000B5E001900D928A95E1F7E8E6F5E084E053
:105A900090E0928F818F14A613A615A620E04DE00A
:105AA0006CE089E495E00E94A21520E04AE06BE0FA
:105AB0008AE295E00E94A215E7EBF4E04FEF5FEF7A
:105AC000BA014083518362837383108611861286E4
:105AD00013868FEF99ECAAE9BBE3808B918BA28BA5
