:100000000C949F020C9460050C9439050C949E0886
:100010000C949E080C949E080C942D1D0C94C70201
:100020000C94C7020C94C7020C94C7020C94C7022C
:100030000C94C7020C94C7020C94C7020C94C7021C
:100040000C947C240C94C7020C943E070C94180763
:100050000C94C7020C94C7020C94C7020C94C702FC
:100060000C9470070C94C7022A0E440E590E740E9D
:100070007F0ED90EE00EEA0EF50E040F040F040FEA
:10008000040F040F040F040F040F040F040F040FD8
:10009000040F040F040F040F040F040F040F040FC8
:1000A000040F040F040F040F2A0E3F0E440E590EC6
:1000B000740E7F0E9A0EA50EB00E084AD73B3BCEAB
:1000C000016E84BCBFFDC12F3D6C74319ABD568357
:1000D0003DDA3D00C77F11BED9E4BB4C3E916BAA0F
:1000E000AABE000000803F00094572726F72204F67
:1000F0004C20706172616D657465727300095061A6
:1001000072616D6574657273206C6F6164656421E2
:100110000009436865636B20706172616D65746589
:1001200072730046696E69736820696E697400476E
:100130005053206572726F720047505320636F6E88
:100140006E65637465640054657374204750533A58
:100150000043616D65726120555342200A537769EF
:1001600074636820746F2043616D6572610044653B
:10017000627567206D6F64650053657175656E63A8
:1001800065206D6F6465005642555320636F6E6E37
:100190006563746564200A5761697420666F722014
:1001A000636F6D6D616E643A2035730009416E6155
:1001B0006C6F6720566F6C746167653A2000506FF2
:1001C00074426F7420765F31300009575320696E96
:1001D00020776174657200094750532074696D651A
:1001E000206F757400092053746174655F74696DC4
:1001F000652873293A004537204465706C6F790093
:100200000957532064727920262074696D65206F28
:1002100075740009575320696E2077617465720008
:1002200009496E20616E676C6500616E676C6528B8
:10023000646567293A2000092053746174655F740E
:10024000696D652873293A2000092054696C74652A
:10025000643F207765743F004536205072652D64F9
:1002600065706C6F790009575320696E207761744F
:10027000657200094750532074696D652026204936
:100280006E206169720009475053206669782065C5
:10029000787069726564004750535F6672657128B3
:1002A00073293A200009206973207765743F205331
:1002B000746174655F74696D652873293A2000451F
:1002C000352052657472696576656400092077612E
:1002D000697420666F722057533D6169722C2076D5
:1002E0006964656F5F74696D652873293A200045FC
:1002F000342052657472696576696E670074656D45
:10030000705F667265712873293A2000092077654D
:10031000743F2054696C7465642028616E676C6555
:1003200028646567293A000A453320496E207761C1
:10033000746572202D2077616974696E67000956B3
:100340006964656F20666F7220503128736563732E
:10035000293A20004532204465706C6F796564004D
:1003600045312057616974205753000909206F6C8B
:10037000207265636F72642073746174650000009D
:100380000000240027002A000000000800020100ED
:100390000003040700000000000000003520726523
:1003A0006164696E6773202D3E20415647000947FE
:1003B00050532076616C69642072656164696E6770
:1003C000000931737420475053000A0947505320E5
:1003D00072656365697665640009706172616D6557
:1003E00074657273206C6F6164656400726561642A
:1003F00020706F74626F7400096572726F720A0008
:10040000097072696E74206C6F67676572000955B8
:1004100053422073776974636820746F2043414DA1
:100420004552410A00094E6F7420757365640A00D5
:100430000968756D0A000943616D657261206F6618
:1004400066000943616D657261206F6E0009475057
:1004500053206F66662E2E2E0009475053206F6E74
:100460002E2E2E000947505320766F6C74616765FD
:1004700020746F6F2068696768000953657175653E
:100480006E6365206D6F6465204F4646200A000943
:1004900053657175656E6365206D6F6465204F4EA1
:1004A000200A00094C4F47474552204F4646200A34
:1004B0000009494D55206F66660009494D55206F6A
:1004C0006E2000565F4241543A20006572726F728E
:1004D000206F70656E6C6F6E6720636D64004F4CAB
:1004E00020434D445F4D4F4445004F70656E20637F
:1004F0006F6D6D616E64206D6F64650A00000000B1
:100500000023002600290000000000250028002B01
:1005100000040404040404040402020202020203AC
:1005200003030303030102040810204080010204B6
:1005300008102001020408102000F42CDE2C1124E5
:100540001FBECFEFD8E0DEBFCDBF12E0A0E0B1E02C
:10055000E6EDF5E602C005900D92AA39B107D9F78C
:1005600025E0AAE9B2E001C01D92A13AB207E1F785
:1005700012E0CEE9D2E004C02197FE010E946D3165
:10058000CD39D107C9F70E94C6240C94DE320C94F1
:1005900000000895CF92DF92EF92FF920F931F9386
:1005A000CF93DF936C017A018B01C0E0D0E0CE15D0
:1005B000DF0581F0D8016D918D01D601ED91FC919F
:1005C0000190F081E02DC6010995892B11F021964B
:1005D000EECF7E01C701DF91CF911F910F91FF9068
:1005E000EF90DF90CF900895FC01538D448D252F1F
:1005F00030E0842F90E0821B930B541710F0CF96BD
:10060000089501970895FC01918D828D981761F0EE
:10061000828DDF01A80FB11D5D968C91928D9F5F39
:100620009F73928F90E008958FEF9FEF0895FC01E4
:10063000918D828D981731F0828DE80FF11D858D97
:1006400090E008958FEF9FEF0895FC01918D228D2A
:10065000892F90E0805C9F4F821B91098F739927AF
:1006600008958BE094E00E94250321E0892B09F492
:1006700020E0822F0895FC01848DDF01A80FB11DB9
:10068000A35ABF4F2C91848D90E001968F739927C8
:10069000848FA689B7892C93A089B1898C918370A6
:1006A00080648C93938D848D981306C00288F3899F
:1006B000E02D80818F7D80830895EF92FF920F93CC
:1006C0001F93CF93DF93EC0181E0888F9B8D8C8DFE
:1006D000981305C0E889F989808185FD26C0F62E2A
:1006E0000B8D10E00F5F1F4F0F731127E02E8C8DC5
:1006F000E8120CC00FB607FCFACFE889F9898081AF
:1007000085FFF5CFCE010E943B03F1CF8B8DFE011B
:10071000E80FF11DE35AFF4FF0829FB7F8940B8F5B
:10072000EA89FB89808180620AC09FB7F894EE89CC
:10073000FF896083E889F989808183708064808380
:100740009FBF81E090E0DF91CF911F910F91FF90CB
:10075000EF900895CF93DF93EC01888D8823C9F043
:10076000EA89FB89808185FD05C0A889B9898C91BA
:1007700086FD0FC00FB607FCF5CF808185FFF2CF55
:10078000A889B9898C9185FFEDCFCE010E943B03EA
:10079000E7CFDF91CF91089580E090E0892B29F099
:1007A0000E94310381110C940000089585ED80931F
:1007B000BC008091BC0084FDFCCF1092E70308953B
:1007C00040912703262F30E0240F311D21323105BF
:1007D000DCF42091E7032430C9F4FC0180E090E0D0
:1007E000861758F4309127032191DC01A95FBC4F93
:1007F000A30FB11D2C930196F3CF80912703680FAF
:100800006093270380E0089581E0089582E00895D1
:10081000089508950895E091A00380919F03E8173B
:1008200030F4F0E0EF55FC4F808190E008958FEFB9
:100830009FEF08959091A00380919F03981750F423
:10084000E92FF0E0EF55FC4F208130E09F5F90935F
:10085000A00302C02FEF3FEFC901089580919F03CD
:1008600090E02091A003821B91090895CF92DF921E
:10087000EF92FF920F931F93CF93DF937C01CB01F5
:100880008A012091E803222389F0EB016B01C40E59
:10089000D51ECC15DD0569F06991D701ED91FC916C
:1008A0000190F081E02DC7010995F3CF642F0E94DC
:1008B000E003C801DF91CF911F910F91FF90EF905E
:1008C000DF90CF900895CF93DF931F92CDB7DEB71F
:1008D00069832091E8032223D1F020910A04203279
:1008E00040F021E030E0FC013383228380E090E09F
:1008F00015C08091E903E82FF0E0E651FC4F9981A3
:1009000090838F5F8093E90380930A0405C061E0C0
:10091000CE0101960E94E00381E090E00F90DF910C
:10092000CF9108952091990330919A0328173907A0
:1009300071F49091970380919803981741F0E0919A
:100940009703F0E0E953FD4F808190E008958FEF29
:100950009FEF08951F93CF93DF93DC015C968D91F9
:100960009C915D97009739F421E030E013963C9319
:100970002E9312973BC05196ED91FC915297509651
:100980002C915097322F30951FB75E964C915E9701
:10099000742F727041FD6095F8944081772311F0B7
:1009A000422B01C043234083EC012197F1F748E03B
:1009B000508160FF02C0522B01C053235083EC01D1
:1009C0002197F1F76695415099F78081772319F0C7
:1009D0008323808302C0282B20831FBF5C968D91C8
:1009E0009C915D970197F1F781E090E0DF91CF91C5
:1009F0001F9108952091990330919A032817390780
:100A000071F4809198032091970390E0805C9F4F50
:100A1000821B910960E470E00E943731089580E004
:100A200090E008952091990330919A03281739078F
:100A3000B9F49091970380919803981789F0E09109
:100A40009703F0E0E953FD4F80812091970330E058
:100A50002F5F3F4F2F7333272093970390E0089524
:100A60008FEF9FEF0895089580E090E008950E9431
:100A7000CA321F920F920FB60F9211242F933F93F9
:100A80004F935F936F937F938F939F93AF93BF9396
:100A9000EF93FF93E0910201F09103010995FF911B
:100AA000EF91BF91AF919F918F917F916F915F91E6
:100AB0004F913F912F910F900FBE0F901F9018955F
:100AC0001F920F920FB60F9211242F933F934F93C3
:100AD0005F936F937F938F939F93AF93BF93EF93A6
:100AE000FF93E0910001F09101010995FF91EF91D1
:100AF000BF91AF919F918F917F916F915F914F9136
:100B00003F912F910F900FBE0F901F901895DC0111
:100B1000ED91FC910190F081E02D0994EF92FF920C
:100B20000F931F93CF93DF938C017B01C0E0D0E044
:100B3000F701EC0FFD1F6491662361F0D801ED9180
:100B4000FC910190F081E02DC8010995892B11F0ED
:100B50002196EECFCE01DF91CF911F910F91FF90A3
:100B6000EF9008956115710579F0FB010190002067
:100B7000E9F73197AF01461B570BDC01ED91FC9172
:100B80000280F381E02D099480E090E008958F9237
:100B90009F92AF92BF92EF92FF920F931F93CF93CA
:100BA000DF93CDB7DEB7A1970FB6F894DEBF0FBEC7
:100BB000CDBF7C01FA01CB0119A2223008F42AE052
:100BC0008E010F5D1F4F822E912CA12CB12CBF01E5
:100BD000A50194010E944B31F901CA01015011098C
:100BE0006A3014F4605D01C0695CD8016C93232BFA
:100BF000242B252B61F7B801C7010E94B205A196ED
:100C00000FB6F894DEBF0FBECDBFDF91CF911F911D
:100C10000F91FF90EF90BF90AF909F908F900895AD
:100C20007F928F929F92AF92BF92CF92DF92EF927C
:100C3000FF920F931F93CF93DF938C016A017B0187
:100C4000722E9A01AB01C701B6010E9401318823BF
:100C500019F06EEE71E027C046015701E894B7F82D
:100C60002FEF3FEF4FE75FE7C501B4010E9401316D
:100C700081110DC02FEF3FEF4FE75FE7C501B401D2
:100C80000E94B72E18161CF462EF71E00CC02FEF13
:100C90003FEF4FE75FE4C701B6010E943D301816F1
:100CA00094F466EF71E0C801DF91CF911F910F912D
:100CB000FF90EF90DF90CF90BF90AF909F908F907C
:100CC0007F900C94B2052FEF3FEF4FE75FECC70129
:100CD000B6010E94B72E87FDE4CF20E030E0A901E5
:100CE000C701B6010E94B72E87FF0AC06DE2C80196
:100CF0000E948705EC01F7FAF094F7F8F09402C02F
:100D0000C0E0D0E0B12C60E070E080E09FE37B14B5
:100D100041F020E030E040E251E40E94BC2EB39468
:100D2000F6CFA70196010E94D92D6B017C010E948C
:100D3000352F4B015C012AE0AB01BC01C8010E94C8
:100D4000C705C80FD91F7720C1F1C501B4010E94A2
:100D5000642F9B01AC01C701B6010E94D82D6B0125
:100D60007C016EE2C8010E948705C80FD91F20E0F0
:100D700030E040E251E4C701B6010E944A304B0125
:100D80005C010E94352F6B01E12CF12C2AE0B701A8
:100D9000A601C8010E94C705C80FD91FC701B60127
:100DA0000E94642F9B01AC01C501B4010E94D82DA3
:100DB0006B017C017A947110DACFCE01DF91CF9173
:100DC0001F910F91FF90EF90DF90CF90BF90AF9069
:100DD0009F908F907F9008950C9410060F931F930F
:100DE000CF93DF93EC010E94B2058C016AEF71E0B2
:100DF000CE010E94B205800F911FDF91CF911F910C
:100E00000F9108950F931F93CF93DF93EC010E94EE
:100E10008E058C016AEF71E0CE010E94B205800F51
:100E2000911FDF91CF911F910F9108950C94B205FE
:100E30001F920F920FB60F9211242F933F934F934F
:100E40005F936F937F938F939F93AF93BF93EF9332
:100E5000FF938BE094E00E943B03FF91EF91BF91E1
:100E6000AF919F918F917F916F915F914F913F9142
:100E70002F910F900FBE0F901F9018951F920F92F9
:100E80000FB60F9211242F938F939F93EF93FF939D
:100E9000E0911B04F0911C048081E0912104F09109
:100EA000220482FD12C09081809124048F5F8F7391
:100EB00020912504821751F0E0912404F0E0E55FD1
:100EC000FB4F958F8093240401C08081FF91EF91A7
:100ED0009F918F912F910F900FBE0F901F9018959B
:100EE0001F920F920FB60F9211242F933F934F939F
:100EF0005F936F937F938F939F93AF93BF93EF9382
:100F0000FF938091B900887F803609F49CC068F512
:100F1000883209F45BC090F4803109F454C038F48D
:100F2000882309F4F6C0883009F44DC0F6C0883132
:100F300009F44CC0803209F45DC0EFC0803409F47C
:100F400068C048F4803309F455C0883309F0E5C01F
:100F50008093E503D8C0803509F44FC0883509F483
:100F60005DC0883409F0D9C0D6C0883909F4C7C03B
:100F7000A8F4883709F467C038F4883609F463C0E8
:100F8000803709F460C0C9C0883809F4B8C0803916
:100F900009F45FC0803809F0C0C05BC0803B09F431
:100FA00086C038F4803A09F466C0883A09F47FC0F4
:100FB000B4C0803C09F4A7C0883C09F4A4C0883BB5
:100FC00009F48AC0AAC08091C20310C09091E403C2
:100FD0008091E303981770F5E091E40381E08E0FB0
:100FE0008093E403F0E0ED53FC4F80818093BB00DD
:100FF00085EC86C08093E5038EC0E091E40381E038
:101000008E0F8093E4038091BB00F0E0ED53FC4F22
:1010100080839091E4038091E3036EC0E091E40348
:1010200081E08E0F8093E4038091BB00F0E0ED53EC
:10103000FC4F80838091E60381116DC081E0809335
:10104000C10384EA61C083E08093E70310924903FF
:10105000CFCF80914903803208F051C0E09149031D
:1010600081E08E0F809349038091BB00F0E0E75D43
:10107000FC4F8083BDCF85EC8093BC001092E703CA
:1010800080914903803230F4E0914903F0E0E75D5C
:10109000FC4F10826091490370E0E0919B03F09156
:1010A0009C0389E293E009951092490336C084E0DD
:1010B0008093E7031092280310922703E0919D0389
:1010C000F0919E03099580912703811105C081E06D
:1010D0008093270310920703E091280381E08E0F8D
:1010E00080932803F0E0E95FFC4F80818093BB0090
:1010F0009091280380912703981708F479CF85E809
:101100008093BC000AC085EC8093BC001092E7037A
:1011100004C01092E5030E94D603FF91EF91BF91A6
:10112000AF919F918F917F916F915F914F913F917F
:101130002F910F900FBE0F901F9018951F920F9236
:101140000FB60F9211242F933F934F935F936F939A
:101150007F938F939F93AF93BF93EF93FF93E09110
:101160009903F0919A03309709F451C0968DA685A2
:10117000B785858591FF04C09C91892329F447C0D8
:101180009C91892309F043C0A389B4899C918589E6
:10119000809589238C93868997890197F1F7608DD3
:1011A000718DA685B785558538E020E0CB01019784
:1011B000F1F7822F90E095958795282F4C91452344
:1011C00009F02068315091F7868D81FD209580913E
:1011D000980390E001968F73992730919703381701
:1011E00049F0A0919803B0E0A953BD4F2C93809390
:1011F000980303C0868D8160868F828D938D0197C1
:10120000F1F7A389B4899C918589892B8C93FF91EF
:10121000EF91BF91AF919F918F917F916F915F916E
:101220004F913F912F910F900FBE0F901F901895E7
:10123000E0919903F0919A03E817F90769F4A389FB
:10124000B4899C918589809589238C9310929A0307
:101250001092990381E0089580E008956093C3029D
:101260007093C4028093C5029093C602DC01CB0147
:10127000845D9E4FAF4FBF4F8093BF029093C002DB
:10128000A093C102B093C20282E090E09093BE02AC
:101290008093BD020E9470246093B9027093BA02D9
:1012A0008093BB029093BC020895CF92DF92EF929D
:1012B000FF920F931F930E9470240091B902109126
:1012C000BA022091BB023091BC026B017C01C01AB2
:1012D000D10AE20AF30A6091C3027091C4028091BC
:1012E000C5029091C60248EEC41643E0D406E1045C
:1012F000F104D0F0DC01CB010196A11DB11D80935A
:10130000C3029093C402A093C502B093C6020851D1
:101310001C4F2F4F3F4F0093B9021093BA022093F6
:10132000BB023093BC02C7CF1F910F91FF90EF908B
:10133000DF90CF9008954F925F926F927F928F923D
:101340009F92AF92BF92CF92DF92EF92FF920F9354
:101350001F93CF93DF934B015C018091B502909175
:10136000B602A091B702B091B80288159905AA05F6
:10137000BB0509F4D2C08CE3C82ED12CE12CF12C92
:10138000C501B401A70196010E944B3160934A0345
:10139000CA01B901A70196010E944B3160934B032A
:1013A000C501B40120E13EE040E050E00E944B3135
:1013B000CA01B90128E130E040E050E00E944B3121
:1013C00060934C03C501B40120E831E541E050E0F1
:1013D0000E944B3169017A01CA01B9016C5F7F4FEC
:1013E0008F4F9F4F27E030E040E050E00E944B31AC
:1013F0006F5F60934D03412C512C320140E004E6B5
:1014000010E0C0E9D1E0242F30E02E54384FF9012C
:10141000E370FF27309789F4C901B8010E94373182
:10142000892B31F4C901BE010E943731892B29F47F
:101430008EE691E0A0E0B0E004C08DE691E0A0E08F
:10144000B0E0480E591E6A1E7B1ED301C201AA27B6
:10145000BB27C816D906EA06FB0610F04F5FD3CFAC
:1014600040935003309799F4C90164E670E00E94FC
:101470003731892B39F4C90160E971E00E943731B5
:10148000892B29F48EE691E0A0E0B0E004C08DE65F
:1014900091E0A0E0B0E0481A590A6A0A7B0AC41831
:1014A000D508E608F708C90164E670E00E94373104
:1014B000EC01C90160E971E00E943731A0E3B1E0BD
:1014C00020E0213039F4309749F4209729F400972F
:1014D00029F402C04C9103C04DE101C04CE150E041
:1014E00060E070E0C416D506E606F70640F0C41AC0
:1014F000D50AE60AF70A2F5F11962C3011F72F5FF5
:1015000020934F03C394C0924E038092B5029092F1
:10151000B602A092B702B092B802DF91CF911F91AC
:101520000F91FF90EF90DF90CF90BF90AF909F9082
:101530008F907F906F905F904F9008950E94550913
:101540000E949B098091500390E08E54984F08951B
:1015500081E08093A6020E9455096093B1027093C6
:10156000B2028093B3029093B4020E945509DC0149
:10157000CB010696A11DB11D8093A2029093A302F8
:10158000A093A402B093A5020895CF92DF92EF92A8
:10159000FF920F931F93CF93DF938C016A017B011E
:1015A000C0E0D0E0C017D107D4F461E088E00E9429
:1015B000601261E089E00E946012C701B6010E94DA
:1015C000CB1260E088E00E94601260E089E00E9437
:1015D0006012C701B6010E94CB122196E3CFDF91C2
:1015E000CF911F910F91FF90EF90DF90CF900895D2
:1015F000CF92DF92EF92FF920F931F93CF93DF93DF
:10160000C0910A05CD3219F4EBE0F5E002C0EAE042
:10161000F5E08F0120E030E0A901D801DD918D01D6
:1016200080ED8D0F8A30B0F4AAE0B0E00E948231E4
:10163000CD2EDD0FDD08EE08FF08DC01CB018C0D9F
:101640009D1DAE1DBF1D9C01AD01205331094109F7
:101650005109E3CFA4E6B0E00E948231DF0121917D
:1016600030ED320F3A30D0F32E3269F511962C91CD
:10167000119730ED320F3A3030F5022E000C330B5B
:10168000205331094AE0429F8001439F100D1124ED
:10169000012E000C220B330B600F711F821F931F52
:1016A00012960C9120ED200F2A3068F4002E000CC9
:1016B000110B00531109012E000C220B330B600F8C
:1016C000711F821F931FCD3239F4909580957095CC
:1016D00061957F4F8F4F9F4FDF91CF911F910F915A
:1016E000FF90EF90DF90CF9008954F925F926F92AE
:1016F0007F928F929F92AF92BF92CF92DF92EF92A2
:10170000FF921F93CF93DF93CAE0D5E0FE01812CB7
:10171000912C5401119180ED810F8A30A8F4AAE038
:10172000B0E0A50194010E948231812E110F990829
:10173000AA08BB08860E971EA81EB91E80E3881A49
:101740009108A108B108E6CFC501B40124E630E054
:1017500040E050E00E944B319B01AC0160EA76E82A
:1017600081E090E00E941B316B017C019E01899118
:1017700090ED980F9A30D0F38E3221F5E901219641
:1017800080E1482E87E2582E612C712CA99180EDC2
:101790008A0F8A30B8F40A2E000CBB0BD097A30135
:1017A00092010E948D31C60ED71EE81EF91EC3019C
:1017B000B2012AE030E040E050E00E944B312901C4
:1017C0003A01E4CFC501B40124E630E040E050E046
:1017D0000E944B3160E472E48FE090E00E941B3184
:1017E0004B015C01C701B6016D5F7F4F8F4F9F4F6B
:1017F00026E030E040E050E00E944B31C501B401EA
:10180000620F731F841F951FDF91CF911F91FF906F
:10181000EF90DF90CF90BF90AF909F908F907F9090
:101820006F905F904F900895833081F028F481305D
:1018300099F08230A1F008958730A9F08830B9F08E
:101840008430D1F4809180008F7D03C0809180002E
:101850008F7780938000089584B58F7702C084B518
:101860008F7D84BD08958091B0008F7703C08091F3
:10187000B0008F7D8093B000089580911F0120E417
:10188000829FC0011124816080937C0080917A0046
:10189000806480937A0080917A0086FDFCCF8091ED
:1018A00078002091790090E0922B08952F923F923A
:1018B0004F925F926F927F928F929F92AF92BF9260
:1018C000CF92DF92EF92FF920F931F93CF93DF930C
:1018D000CDB7DEB72C970FB6F894DEBF0FBECDBFE5
:1018E0000E9470246B017C0110E092E0692E01E0FF
:1018F0000E947024DC01CB018C199D09AE09BF093F
:10190000803D9740A105B10508F0B2C286E495E09C
:101910000E94FA04892B61F386E495E00E94120587
:10192000782E80911D0590911E05A0911F05B09104
:1019300020050196A11DB11D80931D0590931E05E4
:10194000A0931F05B093200534E2731609F46FC20B
:10195000E0911B0537153CF04AE0741679F05DE024
:10196000751272C20BC08AE2781641F09CE27912BD
:101970006BC280910805872580930805EF3008F039
:1019800043C2F0E0E65FFA4F108280910905882398
:1019900009F428C120910A053FEB320F822F022E55
:1019A000000C990B363010F4C79707C0215626302B
:1019B00018F48755910901C0C097282F2295207FE0
:1019C00030910B054FEB430F832F032E000C990B27
:1019D000463010F4C79707C03156363018F4875593
:1019E000910901C0C097820F909108058913F0C03A
:1019F00080911C05882309F407C2809121059091EC
:101A00002205019690932205809321058091FC0484
:101A10009091FD04A091FE04B091FF048093F8041E
:101A20009093F904A093FA04B093FB048091040509
:101A300090910505A0910605B091070580930005DA
:101A400090930105A0930205B093030580911905B9
:101A5000882309F464C0813009F0D2C18091B804B0
:101A60009091B904A091BA04B091BB048093B404DE
:101A70009093B504A093B604B093B7048091C004CA
:101A80009091C104A091C204B091C3048093BC049E
:101A90009093BD04A093BE04B093BF048091C8048A
:101AA0009091C904A091CA04B091CB048093C4045E
:101AB0009093C504A093C604B093C7048091D0044A
:101AC0009091D104A091D204B091D3048093CC041E
:101AD0009093CD04A093CE04B093CF048091E00402
:101AE0009091E104A091E204B091E3048093DC04BE
:101AF0009093DD04A093DE04B093DF048091E804AA
:101B00009091E904A091EA04B091EB048093E4047D
:101B10009093E504A093E604B093E70471C180912B
:101B2000D8049091D904A091DA04B091DB04809399
:101B3000D4049093D504A093D604B093D704809195
:101B4000B8049091B904A091BA04B091BB048093F9
:101B5000B4049093B504A093B604B093B7048091F5
:101B6000C8049091C904A091CA04B091CB04809399
:101B7000C4049093C504A093C604B093C704809195
:101B8000D0049091D104A091D204B091D304809359
:101B9000CC049093CD04A093CE04B093CF04809155
:101BA000F6049091F7049093F5048093F4048091E7
:101BB000F0049091F104A091F204B091F3048093A9
:101BC000EC049093ED04A093EE04B093EF0418C1DD
:101BD000809123059091240501969093240580938C
:101BE000230512C190911A0591111CC0AAE0B5E01D
:101BF0004DEF51E09D01F90181919F01882309F486
:101C000001C1FA019191AF018917A9F3E3E0F2E074
:101C10008D91882309F4AFC391918917C9F360921C
:101C20001905F2C0E0911905E23009F4EDC0809188
:101C30000A05882309F4E8C020E2E29FF00111249C
:101C4000E92B3197E932F10508F0DEC0EC5CFF4F7B
:101C50000C946D310E94F80A6093B8047093B90433
:101C60008093BA049093BB040E9470246093FC0498
:101C70007093FD048093FE049093FF04C5C091E02F
:101C8000813409F099C099C00E94750B6093C80413
:101C90007093C9048093CA049093CB040E9470246B
:101CA00060930405709305058093060590930705DE
:101CB000ABC0833509F0A8C08091C8049091C904D5
:101CC000A091CA04B091CB04B095A0959095819550
:101CD0009F4FAF4FBF4F8093C8049093C904A09308
:101CE000CA04B093CB0490C00E94750B6093D004DB
:101CF0007093D1048093D2049093D30485C0873528
:101D000009F082C08091D0049091D104A091D204B6
:101D1000B091D304B095A095909581959F4FAF4F0A
:101D2000BF4F8093D0049093D104A093D204B0937A
:101D3000D3046AC00E94F80A6093E0047093E1043F
:101D40008093E2049093E3045FC00E94F80A6093DA
:101D5000E8047093E9048093EA049093EB0454C080
:101D6000EAE0F5E020E030E0A901B19080ED8B0DD4
:101D70008A30B0F4AAE0B0E00E9482318B2CBB0C18
:101D80009908AA08BB08DC01CB01880D991DAA1D82
:101D9000BB1D9C01AD012053310941095109E5CF1B
:101DA0002093C0043093C1044093C2045093C304F1
:101DB0002BC091E081330CF490E090931C0524C07B
:101DC0008AE095E00E94B22D99279093F7048093C2
:101DD000F6041AC00E94F80A6093F0047093F104AC
:101DE0008093F2049093F3040FC00E94F80A60936A
:101DF000D8047093D9048093DA049093DB0404C070
:101E000081E003C00093190580E090911A059F5F5F
:101E100090931A0510921B0591E03AE2731290E03C
:101E200090930905882309F471CD11E06FCD1092CC
:101E30001B0510921A051092080560921905109260
:101E4000090510921C0562CDEE3040F481E08E0F42
:101E500080931B05F0E0E65FFA4F708280910905E0
:101E6000811154CD809108057826709208054ECDD9
:101E7000112309F475C2C090C404D090C504E09049
:101E8000C604F090C7048090CC049090CD04A0903C
:101E9000CE04B090CF048091000590910105A091EF
:101EA0000205B09103058F3F9F4FAF4FBF4F11F019
:101EB0000E9470245FEFC51659ECD5065AE9E50675
:101EC0005BE3F50659F0C701B6010E94662F20E0DA
:101ED00034E244E759E40E94BC2E04C060E070E0A4
:101EE0008AE794E4609355037093560380935703F5
:101EF000909358038FEFC81689ECD8068AE9E80654
:101F00008BE3F80659F0C501B4010E94662F20E06A
:101F100034E244E759E40E94BC2E04C060E070E063
:101F20008AE794E4609351037093520380935303C0
:101F3000909354034090BC045090BD046090BE0444
:101F40007090BF048090B4049090B504A090B60443
:101F5000B090B7048091F8049091F904A091FA042C
:101F6000B091FB048F3F9F4FAF4FBF4F11F00E94C6
:101F70007024C301B20124E630E040E050E00E944A
:101F80004B3169837A838B839C8329813A81213504
:101F900031052CF440ED57E05A87498704C08CE6A0
:101FA00097E09A87898784E6C82ED12CE12CF12C02
:101FB000C301B201A70196010E944B31CA01B901C8
:101FC000A70196010E944B316D837E838F83988792
:101FD000C301B20120E137E240E050E00E944B3102
:101FE000222EC501B40120E432E44FE050E00E940B
:101FF0004B31322EC501B40120E137E240E050E020
:102000000E944B31CA01B901A70196010E944B31D0
:10201000762E672E582E492EC501B401A7019601D0
:102020000E944B31CA01B901A70196010E944B31B0
:102030004B015C01E981FA81A985BA85EA0FFB1F92
:10204000E25BF740E0935003BD81B0934F032092D1
:102050004E0330924C0370924B0360934A03AE2FB1
:10206000B0E020E833E341EE51E00E9482316B01A1
:102070007C0122EB37E03A8329839F01332704E672
:1020800010E0E0E9F1E089819A81825B9740821754
:10209000930714F589819A8183709927892BA9F474
:1020A00089819A81B8010E943731892B39F489815D
:1020B0009A81BF010E943731892B39F440E8C40E60
:1020C00041E5D41E41E0E41EF11C49815A814F5F75
:1020D0005F4F5A834983D7CF2E54384FC90164E6E6
:1020E00070E00E9437319A838983C90160E971E009
:1020F0000E9437318C01E0E3F1E0FC87EB87E1E0FF
:10210000F0E0A901437055275A8749878D819E8148
:10211000E817F9076CF5E230F10599F4A985BA855D
:10212000AB2B79F429813A81232B19F40115110580
:1021300041F430E8C30E3BE3D31E36E2E31EF11C4C
:102140000FC0AB85BC858C91A82FB0E020E831E5AD
:1021500041E050E00E948231C60ED71EE81EF91EF3
:1021600031962B853C852F5F3F4F3C872B87CECF09
:10217000232D30E0A0E1BEE00E94733169837A83B1
:102180008B839C83ACE3B0E0272D362D452D542D59
:102190000E94823129813A814B815C81260F371F51
:1021A000481F591F820E931EA41EB51EA22DB0E01B
:1021B000119720E831E541E050E00E948D31860E14
:1021C000971EA81EB91EC501B4016C0D7D1D8E1D84
:1021D0009F1D0E942E090E94550960587F488F4F0D
:1021E0009F4F0E942E096AEC73E08BE094E00E94FE
:1021F000020740916103509162035A834983452B42
:1022000079F481E090E0909362038093610361EC44
:1022100073E08BE094E00E94020751E05D83A1C06F
:1022200089819A8106970CF04CC02091550330911A
:102230005603409157035091580360915D0370918C
:102240005E0380915F03909160030E94D92D60939B
:102250005D0370935E0380935F039093600320910E
:1022600051033091520340915303509154036091B4
:10227000590370915A0380915B0390915C030E9413
:10228000D92D6093590370935A0380935B03909305
:102290005C03A981BA811196B0936203A093610394
:1022A0006EEA73E08BE094E00E94020760916103A4
:1022B000709162038BE094E00E94D923B1E0BD836A
:1022C00050C020E030E040EA50E460915D0370913E
:1022D0005E0380915F03909160030E94BC2E609327
:1022E000550370935603809357039093580320E04F
:1022F00030E040EA50E46091590370915A038091B4
:102300005B0390915C030E94BC2E60935103709319
:1023100052038093530390935403109262031092DC
:10232000610310925D0310925E0310925F0310929E
:1023300060031092590310925A0310925B0310929B
:102340005C036CE973E08BE094E00E9402070E945A
:10235000A80A61E087E40E94731F82E090E00EC04B
:102360001D82198269E072E08BE094E00E941607FA
:102370008D81998103C01092190546CD2C960FB618
:10238000F894DEBF0FBECDBFDF91CF911F910F91AB
:10239000FF90EF90DF90CF90BF90AF909F908F9085
:1023A0007F906F905F904F903F902F900895FC0129
:1023B000138E128E118E108E178A168A8DEC90E075
:1023C000958F848F9485963108F04EC025E530E0D6
:1023D000378B268B2BEC30E0318F208F20E930E0DB
:1023E000338F228F30916800983058F021E09E3072
:1023F00008F420E091E0892F01C0880F2A95EAF7C0
:1024000001C084E0832B809368008485883038F095
:102410008E3040F0863148F020E030E008C02DE6F4
:1024200030E005C02BE630E002C02CE630E0348B13
:10243000238B883030F491E001C0990F8A95EAF738
:102440000EC0282F30E08E3018F42850310902C019
:102450002E50310991E001C0990F2A95EAF7958B2A
:10246000848D958D0197F1F7CF010C940F24CF93B4
:10247000DF93282F30E0F901E857FC4F8491F901F0
:10248000EB5DFA4FD491F901EF5EFA4FC491CC2382
:1024900091F081110E94140CEC2FF0E0EE0FFF1F61
:1024A000E350FB4FA591B491EC91ED2381E090E0D6
:1024B00021F480E002C080E090E0DF91CF910895A8
:1024C0001F93CF93DF93282F30E0F901E857FC4F9B
:1024D0008491F901EB5DFA4FD491F901EF5EFA4F67
:1024E000C491CC23C1F0162F81110E94140CEC2F43
:1024F000F0E0EE0FFF1FE95FFA4FA591B4919FB78F
:10250000F894111104C08C91D095D82302C0EC919D
:10251000DE2BDC939FBFDF91CF911F910895CF9366
:10252000DF9390E0FC01EB5DFA4F2491FC01EF5E3C
:10253000FA4F8491882361F190E0880F991FFC0184
:10254000E258FC4FC591D491FC01E95FFA4FA59187
:10255000B491611109C09FB7F894888120958223B6
:102560008883EC912E230BC0623061F49FB7F894FE
:102570008881322F309583238883EC912E2B2C93E6
:102580009FBF06C08FB7F894E8812E2B28838FBF9A
:10259000DF91CF9108958F929F92AF92BF92CF9289
:1025A000DF92EF92FF926B017C010E944B244B0162
:1025B0005C01C114D104E104F104F1F00E944B2448
:1025C000DC01CB0188199909AA09BB09883E93400F
:1025D000A105B10570F321E0C21AD108E108F108A4
:1025E00088EE880E83E0981EA11CB11CC114D10492
:1025F000E104F10419F7DDCFFF90EF90DF90CF9069
:10260000BF90AF909F908F9008958F929F92AF92BE
:10261000BF92CF92DF92EF92FF920F931F93CF93CF
:10262000DF935C010E948F1D6CEA7DE080E090E00A
:102630000E94CB126CEE73E087E295E00E940207E5
:1026400098ECC92ED12CC0E0D0E000E010E02AE0E8
:10265000922E8824839487E295E00E94FA04892BC5
:1026600009F460C087E295E00E941205F82E682FF9
:102670008BE094E00E9487050D3011057CF069ED38
:1026800073E08BE094E00E9402076BE072E087E267
:1026900095E00E94EE0681E090E05FC08DE2F812C6
:1026A00002C08092630380ED8F0D8A3060F49C9E9F
:1026B000C0019D9E900D1124EC01CF0DD11DF7FCA2
:1026C000DA95E0972FC0ECE2FE122CC080916303F4
:1026D000882329F0D195C195D1091092630378011F
:1026E000EE0CFF1CEA0CFB1CF701D183C083E80150
:1026F000219661E172E08BE094E00E941607B80138
:102700008BE094E00E94D92360E272E08BE094E0D9
:102710000E941607F701808191810E9438248E0162
:10272000C0E0D0E06AE070E080E090E00E94CB1270
:10273000F1E0CF1AD10809F08ECF61E083E00E946A
:1027400060126AE070E080E090E00E94CB1260E0EE
:102750008AE00E948F1280E090E0DF91CF911F917C
:102760000F91FF90EF90DF90CF90BF90AF909F9030
:102770008F900895FC016387089508950C94413269
:102780000F931F93CF93DF938C01EB0188E2FB0142
:1027900011928A95E9F74BE050E064E272E0CE01D5
:1027A0000E94CF321B8681E090E0A0E0B0E08C87F1
:1027B0009D87AE87BF87F80184859585A685B785F7
:1027C000888B998BAA8BBB8B82E090E0A0E0B0E075
:1027D0008C8B9D8BAE8BBF8B1CA21DA21EA21FA239
:1027E000188E198E1A8E1B8E1C8E1D8E1E8E1F8E9D
:1027F00018A219A21AA21BA2DF91CF911F910F91CB
:1028000008954F925F926F927F928F929F92AF92B4
:10281000BF92CF92DF92EF92FF921F93CF93DF93FD
:10282000CDB7DEB766970FB6F894DEBF0FBECDBF4B
:102830009E8B8D8B162F60E081E60E94731F62E3F2
:1028400070E080E090E00E94CB1283E090E09093F3
:102850009105809390056FE070E08DE10E94B523B3
:102860008934910509F413C56FE070E08EE10E9490
:10287000B5238934910509F40DC560E270E089E162
:102880000E94B523019669F06FE070E08EE10E942E
:10289000B523CC9709F45EC010927F0510927E0597
:1028A0008BC060E270E088E10E94B523019609F4D4
:1028B000ADC06FE070E08EE10E94B52331E020E012
:1028C000CC9709F030E0832F922F20E030E09093F6
:1028D0007F0580937E058230910509F441C08330E5
:1028E000910521F0019709F062C02FC02130310518
:1028F00011F08EE101C08DE1809381058093800508
:1029000088E090E0909387058093860589E090E0C9
:1029100090938505809384058AE090E090938B05E1
:1029200080938A058BE090E09093890580938805D9
:102930008CE090E090938F0580938E058DE090E081
:1029400090938D0580938C0561C02130310541F055
:1029500088E107C082E090E090937F0580937E0538
:1029600089E1809380058EE18093810583E090E08A
:10297000909385058093840584E090E0909387058B
:102980008093860587E090E0909389058093880581
:1029900088E090E090938B0580938A0585E090E035
:1029A00090938D0580938C0586E090E02BC02130BC
:1029B000310511F088E101C089E1809380058EE145
:1029C0008093810583E090E0909385058093840552
:1029D00084E090E0909387058093860585E090E001
:1029E000909389058093880586E090E090938B050D
:1029F00080938A0587E090E090938D0580938C0505
:102A000088E090E090938F0580938E0580917E05FD
:102A100090917F0583309105A9F460E081E20E94E6
:102A2000A82367E580E20E94A82364E684E20E946E
:102A3000A82360E285E20E94A82360E086E20E946B
:102A4000A8231CC0029731F468E083E20E946E2341
:102A500067E405C060E083E20E946E2367E280E2E3
:102A60000E946E236CE080E00E948B2360E281E094
:102A70000E948B2360E082E00E948B23809180057E
:102A80000E94CC2288EA90E00E946B220E94702271
:102A900080937D0566E0809180050E9418230E9446
:102AA00070245B0180919F0390E02091A003821B22
:102AB00091090697ACF48091900590919105892B2E
:102AC00089F30E9470246A197B0980919005909186
:102AD00091058617970730F781E08093920532C001
:102AE00088EA94E00E941A04882E88EA94E00E9402
:102AF0001A04782E88EA94E00E941A04A82E88EA24
:102B000094E00E941A04982E88EA94E00E941A0425
:102B1000B82E88EA94E00E941A04F72CE12CE828E9
:102B2000F0926605E0926505D92CC12CCA28D09296
:102B30006805C0926705982F88278B2990936A05AE
:102B400080936905809181050E94CC2280917E0549
:102B500090917F05039731F48091860590918705C8
:102B6000806804C080918405909185050E946B2245
:102B70000E94702280937D0566E0809181050E940D
:102B800018230E9470247B0180919F0390E0209184
:102B9000A003821B91090697ACF480919005909157
:102BA0009105892B89F30E9470246E197F09809109
:102BB0009005909191058617970730F781E08093F3
:102BC000920573C080917E0590917F050397F9F47B
:102BD00088EA94E00E941A04D82E88EA94E00E94C1
:102BE0001A04A82E88EA94E00E941A04E82E88EAC3
:102BF00094E00E941A04B82E88EA94E00E941A0415
:102C0000F82E88EA94E00E941A04C82E39C088EA97
:102C100094E00E941A04A82E88EA94E00E941A0404
:102C2000D82E80917E0590917F05892BA9F488EAA2
:102C300094E00E941A04B82E88EA94E00E941A04D4
:102C4000E82E88EA94E00E941A04C82E88EA94E0EC
:102C50000E941A04F82E14C088EA94E00E941A0414
:102C6000C82E88EA94E00E941A04F82E88EA94E0BC
:102C70000E941A04B82E88EA94E00E941A04E82EF2
:102C80008D2D90E09A2990936C0580936B058E2D85
:102C900090E09B2990936E0580936D058F2D90E0B9
:102CA0009C299093700580936F05609165057091E4
:102CB0006605072E000C880B990B0E94662F20E0FA
:102CC00030E040E85DE30E944A302FE539EA46E013
:102CD00053E40E94D92D4B015C016091670570910E
:102CE0006805072E000C880B990B0E94662F20E0C8
:102CF00030E040E85DE30E944A3025E03DE44EE6E6
:102D000052E40E94D82D6B017C016091690570919D
:102D10006A05072E000C880B990B0E94662F20E095
:102D200030E040E85DE30E944A302AEC31E64DE2B3
:102D300053E40E94D82D69837A838B839C836091AE
:102D40006B0570916C05072E000C880B990B0E9487
:102D5000662F24E731ED45EB52E40E944A302DE81E
:102D60003BE540E255E40E94D82D6D837E838F833E
:102D7000988760916D0570916E05072E000C880B89
:102D8000990B0E94662F24E731ED45EB52E40E9437
:102D90004A3021E833E04BE955E40E94D92D698798
:102DA0007A878B879C8760916F0570917005072EDD
:102DB000000C880B990B0E94662F26EE34E14CEC38
:102DC00052E40E944A3027E33AED42EB54E40E9479
:102DD000D82D6D877E878F87988B2EEE3BEE4CE645
:102DE0005FE3C501B4010E944A302B013C012EEC87
:102DF0003FEF4BEA5BE3C701B6010E944A309B01FB
:102E0000AC01C301B2010E94D82D2B013C0126E781
:102E10003EE64AE55CE369817A818B819C810E9470
:102E20004A309B01AC01C301B2010E94D82D26E6B5
:102E300036E646E65FE30E944A302B013C0120ED76
:102E40003CEC4CEC5DE360917803709179038091E8
:102E50007A0390917B030E944A309B01AC01C3012D
:102E6000B2010E94D92D698B7A8B8B8B9C8B6093DE
:102E700078037093790380937A0390937B032EEC0D
:102E80003FEF4BEA5BEBC501B4010E944A302B01D6
:102E90003C012FE13FEB43E65FE3C701B6010E942F
:102EA0004A309B01AC01C301B2010E94D92D2B0114
:102EB0003C0122EF38E245E15BE369817A818B8155
:102EC0009C810E944A309B01AC01C301B2010E9467
:102ED000D92D26E636E646E65FE30E944A302B010E
:102EE0003C0120ED3CEC4CEC5DE36091740370918F
:102EF000750380917603909177030E944A309B017D
:102F0000AC01C301B2010E94D92D2B013C01609399
:102F1000740370937503809376039093770326E789
:102F20003EE64AE55CEBC501B4010E944A304B0124
:102F30005C0122EF38E245E15BE3C701B6010E9484
:102F40004A309B01AC01C501B4010E94D92D6B012F
:102F50007C0122E033ED49E75FE369817A818B816F
:102F60009C810E944A309B01AC01C701B6010E94BE
:102F7000D92D26E636E646E65FE30E944A306B012D
:102F80007C0120ED3CEC4CEC5DE3609170037091B2
:102F9000710380917203909173030E944A309B01E8
:102FA000AC01C701B6010E94D92D6B017C01609371
:102FB000700370937103809372039093730326E7F9
:102FC0003FED45E65FE36D817E818F8198850E94AC
:102FD0004A304B015C012FED37E843E85BE369853C
:102FE0007A858B859C850E944A309B01AC01C50186
:102FF000B4010E94D92D4B015C012EEB3DED42E165
:103000005BE36D857E858F8598890E944A309B01A0
:10301000AC01C501B4010E94D82D26E636E646E68D
:103020005FE30E944A304B015C0120ED3CEC4CEC2C
:103030005DE360916C0370916D0380916E039091DC
:103040006F030E944A309B01AC01C501B4010E948C
:10305000D92D60936C0370936D0380936E039093EE
:103060006F032FED37E843E85BE36D817E818F814D
:1030700098850E944A304B015C012DE737E74BE60B
:103080005FE369857A858B859C850E944A309B0128
:10309000AC01C501B4010E94D92D4B015C012EEE9B
:1030A0003DE543E85BE36D857E858F8598890E94C9
:1030B0004A309B01AC01C501B4010E94D92D26E61E
:1030C00036E646E65FE30E944A304B015C0120EDA4
:1030D0003CEC4CEC5DE36091680370916903809176
:1030E0006A0390916B030E944A309B01AC01C501B9
:1030F000B4010E94D92D6093680370936903809393
:103100006A0390936B032EEB3DED42E15BEB6D8127
:103110007E818F8198850E944A304B015C012EEEA2
:103120003DE543E85BE369857A858B859C850E9454
:103130004A309B01AC01C501B4010E94D92D4B015D
:103140005C012CE631EB4FE75FE36D857E858F8573
:1031500098890E944A309B01AC01C501B4010E94CC
:10316000D92D26E636E646E65FE30E944A304B015B
:103170005C0120ED3CEC4CEC5DE3609164037091EC
:10318000650380916603909167030E944A309B011A
:10319000AC01C501B4010E94D92D60936403709302
:1031A00065038093660390936703A3019201C301B3
:1031B000B2010E944A304B015C01A7019601C70190
:1031C000B6010E944A309B01AC01C501B4010E94C6
:1031D000D92D0E94BD309B01AC0169897A898B8908
:1031E0009C890E94582E20E030E044E353E40E9482
:1031F0004A302BED3FE049E450E40E94BC2E6B01C5
:103200007C01AD89BE8914966D937D938D939C93BB
:103210001797112309F443C06BE272E08BE094E04E
:103220000E941607ED89FE89408151816281738178
:1032300022E030E08BE094E00E94EC0662E372E072
:103240008BE094E00E94160722E030E0B701A6016F
:103250008BE094E00E94EC066CE372E08BE094E07B
:103260000E941607AD89BE8918964D915D916D91AA
:103270007C911B9722E030E08BE094E00E94EC060A
:1032800063E872E08BE094E00E94EE0608C021E063
:1032900030E002C020E030E083E090E018CB8D8980
:1032A0009E8966960FB6F894DEBF0FBECDBFDF9144
:1032B000CF911F91FF90EF90DF90CF90BF90AF9094
:1032C0009F908F907F906F905F904F9008958F9216
:1032D0009F92AF92BF92DF92EF92FF920F931F9354
:1032E000CF93DF937C018B0184E6D82E64E670E0F7
:1032F00080E090E00E94CB1288E40E94CC228CEA0D
:1033000090E00E946B228FE090E00E946B220E946E
:1033100070226AE070E080E090E00E94CB12C4E08E
:10332000D0E062E370E080E090E00E94CB1288E49D
:103330000E94CC2281E590E00E946B220E947022C4
:1033400064E170E080E090E00E94CB120E94702463
:1033500088E40E94CC228AEA90E00E946B220E94BC
:10336000702262E088E40E94D6221092A00380932B
:103370009F0388EA94E00E941A04F70191838083F6
:1033800088EA94E00E941A04F8019183808364E63D
:1033900070E080E090E00E94CB12219711F6F801D6
:1033A000C081D181BE010D2E000C880B990BC53652
:1033B000D1053CF00E94662F20E030E04AE754E45B
:1033C00010C0CB30D1053CF00E94662F20E030E0E9
:1033D00048EC52E406C00E94662F20E030E040E254
:1033E00051E40E94BC2E4B015C01F70160817181A8
:1033F000072E000C880B990B0E94662FA5019401E3
:103400000E94D92D4B015C01C07FDD27DC9EC001ED
:10341000DD9E900D1124892F880F880BF801908371
:10342000818320E030E046E153E4C501B4010E940D
:103430003D3018160CF45ACF64E472E08BE094E04F
:103440000E94160723E0B501A4018BE094E00E94DE
:1034500010066AEF71E08BE094E00E94B20562E32F
:1034600070E080E090E00E94CB1262E370E080E0C8
:1034700090E00E94CB12C501B401DF91CF911F9162
:103480000F91FF90EF90DF90BF90AF909F908F9043
:10349000089508950F931F93CF93DF938C01EB0151
:1034A0008EE10E94CC2261E088EA94E00E946304ED
:1034B0006C2F88EA94E00E9463040E947022F80155
:1034C000D287C187C038D10509F45BC0D8F4C034B5
:1034D000D105A9F1C036D10509F442C0A09709F081
:1034E0008AC080E090E8A9E8B4E480932401909336
:1034F0002501A0932601B093270180E090E0A5E785
:10350000B4E471C0C03CD10509F44CC0C03ED10543
:1035100009F459C0C03AD10509F06DC080E090E0CF
:10352000A8ECB3E48093240190932501A093260195
:10353000B093270180E090E8A1EBB3E454C080E0B1
:1035400090ECA5E5B4E48093240190932501A09329
:103550002601B093270180E090E0AEE3B4E443C0DD
:1035600080E090E8A7E2B4E48093240190932501E1
:10357000A0932601B093270180E090E0A6E1B4E497
:1035800032C080E090E0A1EEB3E4809324019093F8
:103590002501A0932601B093270180E090E0A8ECDC
:1035A000B3E421C080E090E0A5EAB3E48093240175
:1035B00090932501A0932601B093270180E090E825
:1035C000A3E9B3E410C080E090E0A6E6B3E4809302
:1035D000240190932501A0932601B093270180E058
:1035E00090E0ADE4B3E48093200190932101A09397
:1035F0002201B0932301DF91CF911F910F91089584
:103600005F926F927F928F929F92AF92BF92CF9272
:10361000DF92EF92FF920F931F93CF93DF93EC0112
:103620008B0184E2FB0111928A95E9F789E00E94FF
:10363000222380FF07C18EE10E94CC2283E090E02C
:103640000E946B220E94702281113EC066E08EE1D2
:103650000E94182380919F0390E02091A003821B79
:10366000910986309105ECF388EA94E00E941A04EF
:10367000582E88EA94E00E941A04682E88EA94E0A2
:103680000E941A04882E88EA94E00E941A04982E58
:1036900088EA94E00E941A04782E88EA94E00E9456
:1036A0001A04F52CE12C970126293C832B83D72C77
:1036B000C12C9601282BC9019E838D83B82CA12C87
:1036C000C501892998878F838B85882309F445C094
:1036D0002D813E812950384F91E02F3E3F4008F424
:1036E00090E02B813C812950384F81E02F3E3F40B4
:1036F00008F480E0892B39F48F8198858950984FA0
:103700008F3E9F4050F189859A8580369105E1F082
:1037100048F480329105D9F080349105F1F460E6E7
:1037200070E017C0803A910561F0803C910531F05E
:103730008038910591F460EA70E00BC060EE70E0B3
:1037400008C060EC70E005C060E870E002C060E4B2
:1037500070E0CE010E944A1A69CF84E290E0A0E0B6
:10376000B0E0F80180839183A283B3838C859D852B
:10377000AE85BF8584839583A683B78382E090E07E
:10378000A0E0B0E080879187A287B3870E94702471
:10379000F801608B718B828B938BC0902401D09049
:1037A0002501E0902601F09027016B817C81072E96
:1037B000000C880B990B0E94662FA70196010E94AE
:1037C000BC2E20E030E048EC52E40E944A30F80180
:1037D000648B758B868B978B6D817E81072E000C99
:1037E000880B990B0E94662FA70196010E94BC2EA0
:1037F00020E030E048EC52E40E944A30F801608F4B
:10380000718F828F938F6F817885072E000C880BC4
:10381000990B0E94662F2091200130912101409147
:103820002201509123010E94BC2E20E030E048ECA0
:1038300052E40E944A30F801648F758F868F978F0B
:1038400081E001C080E0DF91CF911F910F91FF9047
:10385000EF90DF90CF90BF90AF909F908F907F9030
:103860006F905F90089508950895CF93DF93EB01D3
:10387000882329F0682F87E295E00E94AA04CA30C5
:10388000D1052CF460E387E295E00E9487056AE0A9
:1038900070E080E090E00E94CB12BE0187E295E0EC
:1038A000DF91CF910C94D923CF93DF93EC016DE995
:1038B00071E08BE094E00E941607CA30D1052CF429
:1038C00060E38BE094E00E948705BE018BE094E00A
:1038D000DF91CF910C94D9230F931F93CF93DF9354
:1038E0008C0162E872E08BE094E00E9416070E946F
:1038F00055090E949B09CAE4D3E06A8170E08BE01D
:1039000094E00E94D9230E9455090E949B09898155
:1039100090E00E94541C0E9455090E949B098881D6
:1039200090E00E94541C6AE372E08BE094E00E94F5
:1039300016070E9455090E949B096C8170E08BE07C
:1039400094E00E94D9236AE372E08BE094E00E9445
:1039500016070E9455090E949B096D8170E08BE05B
:1039600094E00E94D9236AE372E08BE094E00E9425
:1039700016070E949E0ABC018BE094E00E94D923A6
:103980006AEF71E08BE094E00E94B2056EE472E0B1
:103990008BE094E00E941607B8018BE094E00E944F
:1039A000D92360E572E08BE094E00E94160764E1A1
:1039B00070E080E090E00E94CB124091550350915E
:1039C0005603609157037091580326E030E08BE076
:1039D00094E00E94EC0664E170E080E090E00E94D8
:1039E000CB126BE38BE094E00E948705409151037A
:1039F00050915203609153037091540326E030E0DC
:103A00008BE094E00E94EC0664E170E080E090E0DE
:103A10000E94CB126BE38BE094E00E94870564E187
:103A200070E080E090E00E94CB1240919A025091A9
:103A30009B0260919C0270919D0223E030E08BE03C
:103A400094E00E94EC0663E872E08BE094E0DF9182
:103A5000CF911F910F910C94EE061F920F920FB60B
:103A60000F9211242F933F934F935F936F937F9304
:103A70008F939F93AF93BF93EF93FF93F8940FB6F9
:103A8000F894A895809160008861809360001092FE
:103A900060000FBE0E9455096F5F7F4F8F4F9F4F91
:103AA0000E942E0962E572E08BE094E00E94160706
:103AB000789480911B0190911C010097F9F020915E
:103AC0002801309129012817390794F08091A1022B
:103AD0008A3070F448EC50E060E070E090E00E94C2
:103AE000C50A81E090E0909329018093280106C0E7
:103AF0002F5F3F4F3093290120932801FF91EF91D1
:103B0000BF91AF919F918F917F916F915F914F91F5
:103B10003F912F910F900FBE0F901F9018950F930C
:103B20001F93CF93DF9361E08AE00E948F126AE0D7
:103B300070E080E090E00E94CB1260E083E00E94A1
:103B4000601268EE73E080E090E00E94CB1283E0A8
:103B50000E943712BC018BE094E00E94D9236AEEE8
:103B600074E08BE094E00E948E0587E295E00E946D
:103B70000F2462E370E080E090E00E94CB12C0E08E
:103B8000D0E061E070E080E090E00E94CB126AE15A
:103B900087E295E00E94AA0461E070E080E090E096
:103BA0000E94CB126AE187E295E00E94AA0461E0DC
:103BB00070E080E090E00E94CB126AE187E295E03D
:103BC0000E94AA046AE070E080E090E00E94CB12BC
:103BD0000AE010E087E295E00E94FA04892B09F4DC
:103BE00047C087E295E00E941205CE9709F040C0D9
:103BF00064E572E08BE094E00E941607BE018BE062
:103C000094E00E94D9236EE572E08BE094E00E947C
:103C1000EE0665E070E080E090E00E94CB1263E881
:103C200072E087E295E00E94EE06C8ECD0E087E201
:103C300095E00E94FA04892B21F087E295E00E942A
:103C400012052197A1F765E070E080E090E00E9406
:103C5000CB1263E872E08BE094E00E94EE066EED1A
:103C600074E08BE094E00E94020781E090E018C0CD
:103C70000150110909F0AECF65E070E080E090E0FE
:103C80000E94CB12CA3FD10549F46BEC74E08BE083
:103C900094E00E94020780E090E002C0219671CF7C
:103CA000DF91CF911F910F9108950F931F93CF93A1
:103CB000DF938C010E946C1C87E295E00E940F2428
:103CC00064EF71E080E090E00E94CB1262E370E06C
:103CD00080E090E00E94CB126091B1027091B2023C
:103CE0008091B3029091B4020E949B09CAE4D3E090
:103CF0006C8170E080E00E94351C62E370E080E03F
:103D000090E00E94CB126091B1027091B20280915A
:103D1000B3029091B4020E949B096D8170E08FE222
:103D20000E94351C62E370E080E090E00E94CB12BC
:103D30006091B1027091B2028091B3029091B4028D
:103D40000E949B096E8170E06E54784F8FE20E9452
:103D5000351C62E370E080E090E00E94CB1260913D
:103D6000B1027091B2028091B3029091B4020E94AC
:103D70009B096A8170E08BE30E94351C62E370E06E
:103D800080E090E00E94CB126091B1027091B2028B
:103D90008091B3029091B4020E949B09698170E006
:103DA0008AE30E94351C62E370E080E090E00E94AC
:103DB000CB126091B1027091B2028091B3029091E6
:103DC000B4020E949B09688170E08AE30E94351C5E
:103DD00062E370E080E090E00E94CB126BE387E248
:103DE00095E00E94870564E670E080E090E00E9424
:103DF000CB126EE472E087E295E00E941607B801EC
:103E000087E295E00E94D92360E572E087E295E0C1
:103E10000E94160764E170E080E090E00E94CB12FF
:103E20004091550350915603609157037091580388
:103E300026E030E087E295E00E94EC0664E170E065
:103E400080E090E00E94CB126BE387E295E00E9455
:103E50008705409151035091520360915303709133
:103E6000540326E030E087E295E00E94EC0664E12E
:103E700070E080E090E00E94CB126BE387E295E077
:103E80000E94870564E170E080E090E00E94CB1220
:103E900040919A0250919B0260919C0270919D0208
:103EA00023E030E087E295E00E94EC0663E872E0F0
:103EB00087E295E00E94EE0682E08093A6020E94CF
:103EC0005509DC01CB010596A11DB11D8093A2020D
:103ED0009093A302A093A402B093A502DF91CF9187
:103EE0001F910F910895CF92DF92EF92FF921F934F
:103EF000CF93DF93CDB7DEB7A6970FB6F894DEBFAA
:103F00000FBECDBF162F873609F475C124F58F3447
:103F100009F408C27CF4813409F482C024F48D30A1
:103F200009F422C21BC2833409F4CCC1873409F4DA
:103F3000B2C114C2843509F442C134F4833509F0A6
:103F40000DC26AE774E00CC2813609F45BC08336A7
:103F500009F4AEC103C28F3609F4CCC1D4F489365A
:103F600009F468C00CF4B8C18C3609F4EAC18D3686
:103F700009F0F4C16EE074E08BE094E00E948E05DD
:103F800061E086E00E94601261E083E60E94731F98
:103F9000EBC1873709F4ABC124F5833709F41EC19F
:103FA000843709F0DBC183E00E943712BC018BE04B
:103FB00094E00E94D92368E872E08BE094E00E94CC
:103FC0001607BE016F5F7F4FCE0185960E9467196D
:103FD00060939A0270939B0280939C0290939D023F
:103FE000C3C1883709F42CC18A3709F0B7C163EC23
:103FF00074E08BE094E00E948E050E943D0C0E94CC
:10400000382417C161E087E00E946012112309F48F
:1040100010C16AEB74E08BE094E00E94020709C1D2
:1040200060E087E00E946012112309F402C161EB95
:1040300074E0F1CF61E087E00E94601280918F030D
:10404000811123C080E491E09093800380937F03EB
:1040500089E390E3A0E0B0E080938B0390938C031E
:10406000A0938D03B0938E0310928A031092830362
:10407000109282031092850310928403109287039A
:104080001092860381E080938F0361E081E60E94B5
:10409000731F81E080938A0380917C03811131C07A
:1040A00060E672E08BE094E00E9416070E943C23D9
:1040B0008EE10E94CC2262E088EA94E00E946304D0
:1040C00060E088EA94E00E9463040E94702280E02D
:1040D0000E942223803161F460E270E08FE793E078
:1040E0000E944A1A6BE672E08BE094E00E94160789
:1040F00068EC70E080E090E00E94CB1281E0809359
:104100007C0368EE73E080E090E00E94CB12BE0179
:104110006F5F7F4F8FE793E00E94001B61E872E0C2
:104120008BE094E00E9416074D895E896F89788D37
:1041300022E030E08BE094E00E94EC0660E572E063
:104140008BE094E00E941607498D5A8D6B8D7C8D13
:1041500022E030E08BE094E00E94EC0660E572E043
:104160008BE094E00E9416074D8D5E8D6F8D78A1D7
:1041700022E030E08BE094E00E94EC0664E872E01C
:104180008BE094E00E94EE0620E030E048EC52E440
:104190006D897E898F89988D0E944A300E942E2FCA
:1041A00020917D0330917E032617370719F421E013
:1041B00020937C0370937E0360937D033AC061E09B
:1041C00083E00E94601283E00E943712BC018BE002
:1041D00094E00E94D92363EA74E0C2C010929E0268
:1041E0006FE874E08BE094E00E948E0585E091E03A
:1041F0000E940513B9C00E943D0C813293403CF0EF
:1042000064E674E08BE094E00E940207ADC060E0D9
:1042100084E00E94601269E574E08BE094E00E9403
:10422000020761E08DE00E948F1286E495E00E9413
:104230000F2462E370E080E090E00E94CB1294C013
:1042400061E087E60E94731F0E9470246B017C016D
:104250000E947024DC01CB018C199D09AE09BF09B5
:104260008032914AA740B10508F07EC00E94560CEA
:10427000892B31F060E177E280E090E00E94CB1280
:1042800081E090E00E946C1C62E370E080E090E0CE
:104290000E94CB12DDCF61E084E00E94601260E0FA
:1042A0008DE00E948F12112321F26DE474E0B3CEF1
:1042B00060E085E00E946012112309F4BACF62E445
:1042C00074E0A9CE61E085E00E946012112309F438
:1042D000B0CF66E374E09FCE82E00E943712BC014B
:1042E0008BE094E00E94D92360E374E039C065E27A
:1042F00074E036C061E08AE00E948F126AE070E0EC
:1043000080E090E00E94CB1260E083E00E946012A7
:1043100087E295E00E940F240E948F1D81E0809328
:10432000A00222C061E083E00E9460126AE070E0B7
:1043300080E090E00E94CB1260E08AE00E948F1241
:1043400013C060E074E08BE094E00E94020790915B
:104350009F0281E0892780939F0206C068EF73E087
:104360008BE094E00E948E0581E090E0A6960FB667
:10437000F894DEBF0FBECDBFDF91CF911F91FF90AC
:10438000EF90DF90CF900895CF92DF92EF92FF925F
:104390000F931F93CF93DF93CDB7DEB72C970FB654
:1043A000F894DEBF0FBECDBF6B017C0103E010E0CF
:1043B00060E0CE0101960E94011401501109C1F77D
:1043C0006EE170E080E090E00E94CB122D813E8192
:1043D0004F815885C701B6010E943D3087FD06C058
:1043E00061E081E40E94731F81E001C080E02C96AF
:1043F0000FB6F894DEBF0FBECDBFDF91CF911F91F6
:104400000F91FF90EF90DF90CF9008950F931F933F
:10441000CF93DF93EC01162F042F1B821A8288EEB4
:1044200093E0A0E0B0E08C839D83AE83BF8388E6F9
:1044300091E0998388831F8A1E8A198E188E1B8E9D
:104440001A8E1D8E1C8E6E8D6E7F6D7F6E8F6695A3
:10445000617081E06827842F0E94601261E0802FE4
:104460000E948F12802F90E0FC01EB5DFA4FE491E7
:10447000E88BFC01EF5EFA4FE491F0E0EE0FFF1FD6
:10448000E95FFA4F859194919A8B898B60E0812F37
:104490000E948F128E8D81FD04C061E0812F0E94E9
:1044A00060121C87812F90E0FC01EB5DFA4FE491D4
:1044B000ED87FC01EF5EFA4FE491F0E0EE0FFF1F95
:1044C000E350FB4F859194919F878E87DF91CF9129
:1044D0001F910F910895682F88EA94E00C9463046B
:1044E00030910A04313208F04BC08091E70381110A
:1044F000FCCF9091930522E02093E70321E02093E5
:10450000E6032FEF2093E5031092E4033093E303D7
:10451000EAEEF3E0A3ECB3E020E0321721F04191A2
:104520004D932F5FFACF1092C2032091C203990FCF
:10453000922B9093C2039091C103913061F4109239
:10454000C1039091C2039093BB009091BC0093FD76
:10455000F8CF95EC01C095EE9093BC009091E703E5
:104560009230E1F39091E5039F3F79F08091E5036C
:10457000803241F08091E503803331F084E005C062
:1045800081E003C082E001C083E01092E903109251
:104590000A041092E803089591E09093E803809351
:1045A00093051092E90310920A0408959091E7038D
:1045B0009111FCCF91E09093E7039093E6032FEFE6
:1045C0002093E5031092E403260F2093E3039093D6
:1045D000C2039091C203880F892B8093C2038091FC
:1045E000C103813061F41092C1038091C2038093B2
:1045F000BB008091BC0083FDF8CF85EC01C085EE47
:104600008093BC008091E7038130E1F38091E40363
:10461000861710F46091E403A3ECB3E0E1EAF3E061
:1046200080E0861721F09D9191938F5FFACF0895D6
:10463000613208F060E20E94D6221092A0038093BB
:104640009F030895CF93C82F8EE10E94CC226C2F38
:1046500088EA94E00E9463040E94702261E08EE187
:104660000E94182388EA94E00E941A04C82F0E942E
:1046700070228C2FCF9108951092A00310929F0367
:104680001092E90310920A041092E70381E08093EC
:10469000E6031092C10361E082E10E94601261E0D2
:1046A00083E10E946012E9EBF0E080818E7F8083DD
:1046B00080818D7F808380E28093B80085E4809341
:1046C000BC0088E094E090939E0380939D0389E072
:1046D00094E090939C0380939B0308950F931F9302
:1046E000CF93DF93082F162FC5E6D5E08B8D0E9460
:1046F000CC22602F88EA94E00E946304612F88EA4C
:1047000094E00E9463040E947022888FDF91CF9111
:104710001F910F9108950F931F93CF93DF93082F4D
:10472000162FC5E6D5E08C8D0E94CC22602F88EA3A
:1047300094E00E946304612F88EA94E00E9463047D
:104740000E947022888FDF91CF911F910F91089561
:1047500020917E0530917F052330310511F08032A4
:1047600010F40C948B230C946E23CF93DF93C82FFB
:10477000D62F0E94CC226D2F88EA94E00E94630419
:104780000E947022811110C061E08C2F0E941823BA
:1047900090919F038091A003981731F088EA94E0EC
:1047A000DF91CF910C941A048FEF9FEFDF91CF919F
:1047B0000895CF92DF92EF92FF920F931F93CF93C2
:1047C000DF936B01770FEE08FF08F7FE1BC0EC01CB
:1047D0006DE20E9487058C0144275527BA014C19C8
:1047E0005D096E097F092AE0CE010E94C705800F8E
:1047F000911FDF91CF911F910F91FF90EF90DF906C
:10480000CF9008952AE0B701A601DF91CF911F91C3
:104810000F91FF90EF90DF90CF900C94C705CF934E
:10482000DF93EC018A8D9B8D892BF1F080919903A8
:1048300090919A03C817D907B9F0009711F00E9418
:1048400018098E8D8E7F8E8F109298031092970389
:10485000D0939A03C0939903EB89FC8990818D8949
:10486000892B808381E001C080E0DF91CF910895A2
:10487000CF93DF93BC018BE094E00E94D923EC013D
:104880006AEF71E08BE094E00E94B2058C0F9D1FEF
:10489000DF91CF9108953FB7F89480919905909159
:1048A0009A05A0919B05B0919C0526B5A89B05C0D3
:1048B0002F3F19F00196A11DB11D3FBFBA2FA92F9F
:1048C000982F8827820F911DA11DB11DBC01CD011C
:1048D00043E0660F771F881F991F4A95D1F7089507
:1048E0002FB7F89460919505709196058091970582
:1048F000909198052FBF08951F920F920FB60F92B7
:1049000011242F933F938F939F93AF93BF938091E5
:10491000950590919605A0919705B09198053091D5
:10492000940526E0230F2D3720F40296A11DB11D1A
:1049300005C029E8230F0396A11DB11D20939405FE
:104940008093950590939605A0939705B09398054D
:104950008091990590919A05A0919B05B0919C0535
:104960000196A11DB11D8093990590939A05A0937E
:104970009B05B0939C05BF91AF919F918F913F9103
:104980002F910F900FBE0F901F901895CF93DF932C
:10499000CDB7DEB76C970FB6F894DEBF0FBECDBFB4
:1049A000789484B5826084BD84B5816084BD85B50A
:1049B000826085BD85B5816085BD80916E00816016
:1049C00080936E00109281008091810082608093BC
:1049D00081008091810081608093810080918000BE
:1049E0008160809380008091B10084608093B100E9
:1049F0008091B00081608093B00080917A008460E3
:104A000080937A0080917A00826080937A0080910E
:104A10007A008E7F80937A0080917A0080688093FC
:104A20007A001092C10061E084E00E948F1261E080
:104A300084E00E94601261E085E00E948F1261E0D4
:104A400085E00E94601261E088E00E948F1261E0C0
:104A500089E00E948F1244E650E060E070E081E05F
:104A600090E00E94C50A61E083E00E948F1261E03D
:104A700083E00E94601244E650E060E070E081E074
:104A800090E00E94C50A60E083E00E94601244E664
:104A900050E060E070E081E090E00E94C50A61E0D3
:104AA0008DE00E948F1260E08CE00E948F1260E027
:104AB00082E00E948F1260E081E10E948F1260E02C
:104AC00080E10E948F1261E087E00E948F1261E016
:104AD00086E00E948F1244E650E060E070E081E0E2
:104AE00090E00E94C50A83E080931F0161E085E0A9
:104AF0000E94601260E086E00E94601244E650E08E
:104B000060E070E081E090E00E94C50A0E943C23D2
:104B100086E495E00E94D71164E670E080E090E0C2
:104B20000E94CB1287E295E00E94D71164E670E004
:104B300080E090E00E94CB1244E650E060E070E03C
:104B400081E090E00E94C50AE0911B04F0911C04F2
:104B500082E08083E0911704F09118041082E091C4
:104B60001904F0911A0488E0808310922304E091E4
:104B70001F04F091200486E08083E0911D04F091F1
:104B80001E04808180618083E0911D04F0911E04E9
:104B9000808188608083E0911D04F0911E048081F3
:104BA00080688083E0911D04F0911E0480818F7DD8
:104BB00080836EEB71E08BE094E00E94020761E07D
:104BC00083E40E94731F0E9470246B017C010E9489
:104BD0007024DC01CB018C199D09AE09BF0986390F
:104BE0009105A105B10540F48BE094E00E94030318
:104BF0000E943D0C8C01EBCF6CEA71E08BE094E0FD
:104C00000E948E05C8010E9438240E943D0C8D3000
:104C100093400CF471C00E9470246B017C010E94CF
:104C20007024DC01CB018C199D09AE09BF09883EB7
:104C30009340A105B10528F48BE094E00E940303A2
:104C4000EECF67E871E08BE094E00E94020761E03C
:104C500085E00E9460128BE094E00E94AA0344E683
:104C600050E060E070E083E090E00E94C50A64E6F6
:104C700070E080E090E00E94CB120E9470246B01F3
:104C80007C010E947024DC01CB018C199D09AE09C6
:104C9000BF0988389341A105B10508F061C68BE0D2
:104CA00094E00E942503892B61F38BE094E00E943D
:104CB0000303182F682F8BE094E00E945D036AE9DC
:104CC00071E08BE094E00E941607133739F469E72E
:104CD00071E08BE094E00E9402070EC081E08093B7
:104CE0009E026EE671E08BE094E00E94020761E0B4
:104CF000812F0E94731FA7C044E650E060E070E07F
:104D000081E090E00E94C50A85E091E00E940513D1
:104D100061E171E08BE094E00E940207CE01019610
:104D20000E940513E5E0F1E0DE0111962191319139
:104D30008D919D912817390749F068EE70E08BE05E
:104D400094E00E94020780E090E00CC081E0ED3129
:104D5000F80761F76DEF70E08BE094E00E940207C6
:104D600081E090E0892B81F283B7817F866083BFE9
:104D700067E471E08BE094E00E94020761E087E65F
:104D80000E94731F0E9470246B017C010E9470249A
:104D9000DC01CB018C199D09AE09BF0980349F410C
:104DA000A105B105A8F486E495E00E94FA04892BD8
:104DB00069F386E495E00E941205873439F769E3C8
:104DC00071E08BE094E00E94020700E010E002C076
:104DD00001E010E061E087E40E94731F012B69F09D
:104DE0006FE271E08BE094E00E94020744E650E03D
:104DF00060E070E08AE090E006C044E650E060E0E9
:104E000070E081E090E00E94C50A1092A202109228
:104E1000A3021092A4021092A50244E650E060E0C2
:104E200070E08AE090E00E94C50A40ED57E060E043
:104E300070E081E090E00E94C50A63E271E08BE0DF
:104E400094E00E94020706E4EE24E394F12C93E33D
:104E5000C92E9CE1D92E29ECA22E22E0B22E8091FF
:104E6000A602823081F40E9455094090A20250901F
:104E7000A3026090A4027090A50246165706680629
:104E8000790608F482C58091A6028130D9F561E0E7
:104E90008AE00E948F126AE070E080E090E00E9459
:104EA000CB1260E083E00E9460120E94550940909E
:104EB000A2025090A3026090A4027090A502461630
:104EC000570668067906F0F4452846284728D1F0A9
:104ED0001092A2021092A3021092A4021092A502B4
:104EE0001092A6028091A1028A3018F06AE00E9416
:104EF0002B3190E00E94551E6BE673E08BE094E04E
:104F00000E9402078091A002882301F187E295E0C8
:104F10000E94FA04892B49F087E295E00E9412056D
:104F2000682F8BE094E00E945D038BE094E00E9488
:104F30002503892B09F411C58BE094E00E9403033B
:104F4000682F87E295E00E94AA0407C580919F021E
:104F5000882331F061E0CE0101960E940114FDC466
:104F600080919E028823E1F08BE094E00E9425036B
:104F7000892B09F4F2C48BE094E00E940303182FFC
:104F8000682F8BE094E00E945D036AE971E08BE09A
:104F900094E00E94160761E0812F0E94731FDDC418
:104FA0001091A102173009F473C4C8F4133009F446
:104FB000A1C178F4113009F4A8C008F018C161E06B
:104FC00083E40E94731F61E087E40E94731F1AE06C
:104FD000A9C4153009F471C208F455C2A8C3183227
:104FE00009F413C2E8F4143109F4C3C01E3109F402
:104FF00039C11A3009F095C462E370E080E090E0B6
:105000000E94CB1260E673E08BE094E00E940207FE
:1050100062E370E080E090E00E94CB1211E082C475
:105020001C3309F436C3163409F4EAC3123309F009
:1050300078C462E370E080E090E00E94CB126FEBF6
:1050400072E08BE094E00E94020765EA72E08BE078
:1050500094E00E948E0560911101709112018BE025
:1050600094E00E94D92367E972E08BE094E00E940B
:105070008E0580911D0190911E010E94382462E3EB
:1050800070E080E090E00E94CB1261E087E60E9431
:10509000731F0E9455094090110150901201052C78
:1050A000000C66087708DC01CB01840D951DA61D58
:1050B000B71D8093AD029093AE02A093AF02B09360
:1050C000B0020E94550940901D0150901E01052C10
:1050D000000C66087708DC01CB01840D951DA61D28
:1050E000B71D8093A9029093AA02A093AB02B0933C
:1050F000AC0261E083E40E94731F1092A802109238
:10510000A7020E94A80A15E00DC46FE971E08BE0C8
:1051100094E00E94EE0664EF71E080E090E00E946F
:10512000CB1283B7817F846083BF83B7816083BFE5
:10513000D0920101C0920001809169008C7F826051
:1051400080936900E89A83B7816083BF889583B7AD
:105150008E7F83BFF89483B78E7F83BFE898B09229
:105160000101A0920001789460E083E00E94601247
:10517000D6C362E370E080E090E00E94CB1264E569
:1051800073E08BE094E00E9402076EE373E08BE033
:1051900094E00E948E0580910701909108010E9481
:1051A000382462E370E080E090E00E94CB120E941D
:1051B00055094090070150900801052C000C660825
:1051C0007708DC01CB01840D951DA61DB71D8093CA
:1051D000AD029093AE02A093AF02B093B00261E033
:1051E00083E60E94731F0E94A80A12E09BC30E94DC
:1051F00055094090AD025090AE026090AF027090A1
:10520000B002461657066806790678F460E083E037
:105210000E94601261E083E40E94731F64E170E009
:1052200080E090E00E94CB121EE182E00E943712E3
:10523000892B09F477C368EE73E080E090E00E9468
:10524000CB1282E00E943712892B09F46BC360E015
:1052500083E00E9460126FEA71E08BE094E00E94AC
:10526000EE06C7C262E370E080E090E00E94CB12DD
:1052700067E273E08BE094E00E9402076CE073E069
:105280008BE094E00E948E0560910B0170910C01FF
:105290008BE094E00E94D9236DEF72E08BE094E004
:1052A0000E948E058091090190910A010E94382484
:1052B00062E370E080E090E00E94CB120E94A80AB6
:1052C0000E9455094090090150900A01052C000CDC
:1052D00066087708DC01CB01840D951DA61DB71D5E
:1052E0008093A9029093AA02A093AB02B093AC0260
:1052F00013E018C30E9455094090A9025090AA02D9
:105300006090AB027090AC024616570668067906AC
:10531000C8F560E083E00E946012BE016F5F7F4FBE
:10532000CE014B960E94671960939A0270939B027C
:1053300080939C0290939D0264E670E080E090E090
:105340000E94CB120E94A80A64E670E080E090E020
:105350000E94CB120E9455094090090150900A0109
:10536000052C000C66087708DC01CB01840D951D27
:10537000A61DB71D8093A9029093AA02A093AB0229
:10538000B093AC0260910B0170910C01072E000CE0
:10539000880B990B0E94662F0E94C421882389F0F4
:1053A00060E083E00E94601267EB71E08BE094E0C4
:1053B0000E94EE0664E170E080E090E00E94CB1273
:1053C00018E282E00E943712892B09F4ABC268EE22
:1053D00073E080E090E00E94CB1282E00E943712DE
:1053E000892B09F49FC260E083E00E9460126FEA9B
:1053F00071E08BE094E00E94EE0664E170E080E0F2
:1054000090E00E94CB1212E38DC262E370E080E074
:1054100090E00E94CB126FEE72E08BE094E00E946D
:1054200002076CEC72E08BE094E00E948E058091A4
:105430000F01909110010E94382462E370E080E037
:1054400090E00E94CB1261E083E60E94731F0E94ED
:10545000550940900F0150901001052C000C660872
:105460007708DC01CB01840D951DA61DB71D809327
:10547000AD029093AE02A093AF02B093B0020E942F
:10548000A80A14E04FC20E9455094090AD02509006
:10549000AE026090AF027090B002461657066806E2
:1054A000790608F08ECF60E083E00E94601261E030
:1054B00083E40E94731F1EE184CF0E94550940902F
:1054C000A9025090AA026090AB027090AC024616FE
:1054D00057066806790630F51092A8021092A702C6
:1054E0000E94550940901D0150901E01052C000C92
:1054F00066087708DC01CB01840D951DA61DB71D3C
:105500008093A9029093AA02A093AB02B093AC023D
:1055100066E872E08BE094E00E94020761E087E6B3
:105520000E94731F0E9455094090AD025090AE0238
:105530006090AF027090B002461657066806790672
:1055400040F561E087E40E94731F82E00E943712F9
:10555000892B09F485C064EF71E080E090E00E943F
:10556000CB1282E00E943712892B09F479C060E0E7
:1055700083E00E94601263E772E08BE094E00E9497
:10558000020764E170E080E090E00E94CB121CE32F
:1055900067C08091A7029091A802892B09F060C092
:1055A0000E94560C81309105D1F0029709F058C045
:1055B000F092A802E092A70263ED71E08BE094E024
:1055C0000E94160780911D0190911E010E943824AF
:1055D00061E087E40E94731F0E94A80A41C0809185
:1055E00004018823E9F10E9455094090110150906F
:1055F0001201052C000C66087708DC01CB01840D34
:10560000951DA61DB71D8093AD029093AE02A09389
:10561000AF02B093B0020E94550940901D01509016
:105620001E01052C000C66087708DC01CB01840DF7
:10563000951DA61DB71D8093A9029093AA02A09361
:10564000AB02B093AC020E949E0A8B3D974014F0CF
:105650001092040161EC71E08BE094E00E94160767
:1056600082E00E943712892B09F05CC16CE271E084
:1056700080E090E00E94CB1282E00E943712892BDA
:1056800009F050C160E083E00E94601266E672E0BB
:105690003CC162E370E080E090E00E94CB1268E5DC
:1056A00072E08BE094E00E94020769E472E08BE014
:1056B00094E00E94020767E372E08BE094E00E94AE
:1056C0008E056091190170911A018BE094E00E949F
:1056D000D9236AE272E08BE094E00E948E0580910B
:1056E0001301909114010E94382462E370E080E07D
:1056F00090E00E94CB120E945509409019015090F1
:105700001A01052C000C66087708DC01CB01840D1A
:10571000951DA61DB71D8093AD029093AE02A09378
:10572000AF02B093B0020E94A80A16E0FBC06091DD
:10573000130170911401072E000C880B990B0E9425
:10574000662F0E94C421882371F060E272E08BE032
:1057500094E00E94020764E170E080E090E00E9423
:10576000CB1216E4DFC082E00E943712892BE9F4E5
:1057700064EF71E080E090E00E94CB1282E00E9432
:105780003712892B09F0CEC060E083E00E946012DE
:1057900063E172E08BE094E00E94020764E170E054
:1057A00080E090E00E94CB12B4C00E945509409066
:1057B000AD025090AE026090AF027090B0024616FB
:1057C00057066806790608F0ADC060E072E08BE02D
:1057D00094E00E94020764E170E080E090E00E94A3
:1057E000CB1261E087E40E94731F61E083E40E94B2
:1057F000731F64E170E080E090E00E94CB1291C0E2
:1058000062E370E080E090E00E94CB1266EF71E00E
:105810008BE094E00E94020767EE71E08BE094E079
:105820000E94EE0665EE71E08BE094E00E948E052A
:1058300080911701909118010E94382462E370E072
:1058400080E090E00E94CB1261E087E60E94731F27
:105850000E9455094090170150901801052C000C2A
:1058600066087708DC01CB01840D951DA61DB71DC8
:105870008093AD029093AE02A093AF02B093B002BA
:1058800061E083E40E94731F0E94A80A17E04AC0E7
:105890000E9455094090AD025090AE026090AF0258
:1058A0007090B0024616570668067906B0F460E0BC
:1058B00083E00E94601261E087E40E94731F67ED3D
:1058C00071E08BE094E00E94020764E170E080E008
:1058D00090E00E94CB121CE302C00E94560C82E0B2
:1058E0000E943712892BF1F468EE73E080E090E0BB
:1058F0000E94CB1282E00E943712892B99F460E05B
:1059000083E00E9460126AEC71E08BE094E00E94F8
:10591000020764E170E080E090E00E94CB1214E1A5
:1059200001C010E01093A1021230B8F069E170E0FC
:1059300080E090E00E94CB12F89414BE8091600049
:1059400088618093600000936000789483B78160E1
:1059500083BF889583B78E7F83BF0E94CC037FCAA5
:1059600061E571E08BE094E00E9402076CE271E077
:1059700080E090E00E94CB1261E086E00E9460121D
:1059800061E083E60E94731FFFCF1092A202109283
:10599000A3021092A4021092A50261E083E00E948B
:1059A00060126AE070E080E090E00E94CB1260E05C
:1059B0008AE00E948F121092A60265CACF93DF93ED
:1059C000C8E6D1E0D0932805C093270587E295E08B
:1059D0000E941809D0934705C093460586E495E0D8
:1059E000DF91CF910C941809EBE0F4E0138212825E
:1059F00088EE93E0A0E0B0E084839583A683B7832C
:105A00002AE731E03183208325EC30E03587248795
:105A100024EC30E03787268720EC30E0318B208B78
:105A200021EC30E0338B228B22EC30E0358B248B61
:105A300026EC30E0378B268B118E128E138E148E4F
:105A4000E8EAF4E01382128284839583A683B78305
:105A50008CE891E09183808386E0E8E5F1E0A7E7B8
:105A6000B5E001900D928A95E1F786E0EEE5F1E070
:105A7000A1E7B5E001900D928A95E1F7E5E6F5E042
:105A800084E090E0928F818F14A613A615A64DE0B6
:105A90006CE086E495E00E9406224AE06BE087E233
:105AA00095E00E940622E4EBF4E04FEF5FEFBA01CD
:105AB0004083518362837383108611861286138616
:105AC0008FEF99ECAAE9BBE3808B918BA28BB38B10
:105AD000808F918FA28FB38F80A391A3A2A3B3A332
